S01A000050726F796563746F496E7465677261646F722E73726563A6
S315000000009042052019500200914702002950020033
S315000000102950020029500200295002000000000069
S31500000020000000000000000000000000295002004F
S315000000302950020000000000F1DB0300A5DC0300EC
S3150000004001D8000081E50100E9E5010051E6010063
S3150000005079AD010061980100319901006D8D0100B3
S31500000060055E0100FD5C0100AD5D0100555D01000E
S31500000070257A0100797A0100693701008D35010082
S31500000080BD36010069340100FFFFFFFFFFFFFFFFE0
S31500000090FFFFFFFFFFFFFFFFFFFFFFFFFFFFFFFF6A
S315000000A0FFFFFFFFFFFFFFFFFFFFFFFFFFFFFFFF5A
S315000000B0FFFFFFFFFFFFFFFFFFFFFFFFFFFFFFFF4A
S315000000C0FFFFFFFFFFFFFFFFFFFFFFFFFFFFFFFF3A
S31500000400FFFFFFFFFFFDFFFFFFFFFFFFFFFFFFFFF8
S31500000410FFFFFFFFFFFFFFFFFFFFFFFFFFFFFFFFE6
S31500000420FFFFFFFFFFFFFFFFFFFFFFFFFFFFFFFFD6
S31500000430FFFFFFFFFFFFFFFFFFFFFFFFFFFFFFFFC6
S31500000440FFFFFFFFFFFFFFFFFFFFFFFFFFFFFFFFB6
S31500000450FFFFFFFFFFFFFFFFFFFFFFFFFFFFFFFFA6
S31500000460FFFFFFFFFFFFFFFFFFFFFFFFFFFFFFFF96
S31500000470FFFFFFFFFFFFFFFFFFFFFFFFFFFFFFFF86
S31500000480FFFFFFFFFFFFFFFFFFFFFFFFFFFFFFFF76
S31500000490FFFFFFFFFFFFFFFFFFFFFFFFFFFFFFFF66
S315000004A0FFFFFFFFFFFFFFFFFFFFFFFFFFFFFFFF56
S315000004B0FFFFFFFFFFFFFFFFFFFFFFFFFFFFFFFF46
S315000004C0FFFFFFFFFFFFFFFFFFFFFFFFFFFFFFFF36
S315000004D0FFFFFFFFFFFFFFFFFFFFFFFFFFFFFFFF26
S315000004E0FFFFFFFFFFFFFFFFFFFFFFFFFFFFFFFF16
S315000004F0FFFFFFFFFFFFFFFFFFFFFFFFFFFFFFFF06
S3150000050040470420FD014400D8470420FA01430077
S31500000510DC470420FB014308E0470420FC014310AC
S31500000520D0500420B6002B30A05004200A252B0002
S315000005309C50042010252B304C5004200A000648FD
S315000005407050042070081500645004206D081508CA
S315000005506C5004206F081510685004206E0815189A
S3150000056044470420FF01450048470420FE01450892
S3150000057048500420770114083C50042074011410DC
S31500000580445004207601142040500420750114289C
S3150000059020000000200001002F0000002F000100B5
S315000005A00C000100110000003000000030000100C6
S315000005B0240000002400010024000200240003009F
S315000005C024000400240005001300000017000000AA
S315000005D023000000210000002100010007000000A8
S315000005E007000100070002000700030007000400DF
S315000005F007000500070006000700070012000000BC
S3150000060044000000080000000B000000410000004C
S31500000610400000004000010004000000430000000C
S315000006202B0000002B000A002B000B002B000C00F7
S315000006302B000D002B0001002B0002002B000300F5
S315000006402B0004002B0005002B0006002B000700E2
S315000006502B0008002B0009000600000006000A0017
S3150000066006000B0006000C0006000D0006000E003A
S3150000067006000F0006000100060002000600030047
S315000006800600040006000500060006000600070036
S31500000690060008000600090015000000150001000C
S315000006A015000200310000002A000000450000008D
S315000006B01000000003010000030000000300010019
S315000006C00F0000000D0000002D0000004200000099
S315000006D02C0000002C0001002C0002002C0003005E
S315000006E0320000002800000018000000140000007E
S315000006F0140001001400020014000300140004009A
S315000007001400050014000600140007001400080079
S315000007101400090034000000340001001600000037
S31500000720160001003500000036000000360001000A
S315000007302200000033000000330100002900000001
S3150000074010B5054C237833B9044B13B10448AFF305
S3150000075000800123237010BD8005FE1F00000000ED
S31500000760DC340400084B10B51BB108480849AFF348
S3150000077000800848036803B910BD074B002BFBD067
S31500000780BDE81040184700BF00000000DC3404003C
S315000007908405FE1FC004FE1F0000000090B587B050
S315000007A000AFF860B9607A603B6000233B610EE001
S315000007B0FB689C68B86879683A680023A047786146
S315000007C07B69002B00D105E03B6901333B613B6946
S315000007D0092BEDDD7B6918461C37BD4690BD00BF71
S315000007E090B587B000AFF860B9607A603B600023CF
S315000007F03B610FE0FB68DC6897F82830B8687968D9
S315000008003A68A04778617B69002B00D105E03B6917
S3150000081001333B613B69092BECDD7B6918461C37CC
S31500000820BD4690BD90B587B000AFF860B9607A60FC
S315000008303B6000233B6119E0FB68DC68B8687968B7
S315000008403A680123A04778617B69002B0BD1FB68CE
S315000008509C68B86879683A680023A04778617B6924
S31500000860002B00D105E03B6901333B613B69092B55
S31500000870E2DD7B6918461C37BD4690BD80B58AB05F
S3150000088000AF786039607B687B627B6AD3F834316D
S315000008901B683B627B6AD3F838311B68FB617B6A55
S315000008A0D3F834319B68BB617B6AD3F838319B68D7
S315000008B07B617B695B68F8694FF0FF319847386167
S315000008C03B69002B01D03B69AEE03B6800229A8071
S315000008D03B680022DA803B6803221A726323FB72AC
S315000008E007F10B03B869396A1A460123FFF79AFF25
S315000008F038613B69002B05D0BB691B69386A98478C
S31500000900642391E0FB7A03F00403002B02D03B68DA
S3150000091004221A7207F10C03B869396A1A460423CD
S31500000920FFF73CFF38613B69002B05D0BB691B69AB
S31500000930386A9847642377E07B6A9B881A463B7B34
S31500000940C3F30303DBB21B0299B27B7B9BB20B435F
S315000009509BB21BB203FB02F3354A82FB03121A4415
S31500000960D212DB17D31A9AB23B689A807B6ADB886D
S315000009701A46BB7BC3F30303DBB21B0299B2FB7BB4
S315000009809BB20B439BB21BB203FB02F3284A82FBCA
S3150000099003121A44D212DB17D31A9AB23B68DA80D2
S315000009A07B6A1B7F012B03D07B6A1B7F022B02D144
S315000009B07B6A03221A777B6A1B7F032B1AD13B685B
S315000009C01B7A032B16D17B6A1A8B3B689B8812B263
S315000009D01BB29A4207D17B6A5A8B3B68DB8812B2FC
S315000009E01BB29A4203D03B6802221A7202E03B68AD
S315000009F001221A723B681A7A7B6A1A773B681B7A5D
S31500000A00042B08D17B6A1A8B3B689A807B6A5A8BC7
S31500000A103B68DA8007E03B689A887B6A1A833B6802
S31500000A20DA887B6A5A833B6918462837BD4680BDFB
S31500000A308100088080B58AB002AF78607B68FB6170
S31500000A40FB69D3F834319B68BB61FB69D3F8343159
S31500000A501B687B614B4B1B6AFA69B2F83021104662
S31500000A600021984702203CF07FFCBB691B6978692E
S31500000A7098473861434B1B6AFA69B2F83021104631
S31500000A800121984702203CF06FFC00233B7374233E
S31500000A907B732723BB730423FB7307F10C0200232C
S31500000AA00093B86979690423FFF79AFE38613B69B8
S31500000AB0002B05D0BB691B697869984764235DE004
S31500000AC004233B73C0237B7307F10C0200230093BE
S31500000AD0B86979690223FFF783FE38613B69002B09
S31500000AE005D0BB691B6978699847642346E02223D1
S31500000AF03B730C237B7307F10C0200230093B86948
S31500000B0079690223FFF76CFE38613B69002B05D03B
S31500000B10BB691B697869984764232FE00B233B73F5
S31500000B2000237B7307F10C0200230093B8697969EF
S31500000B300223FFF755FE38613B69002B05D0BB69E0
S31500000B401B6978699847642318E0E0233B7307F133
S31500000B500C0200230093B86979690123FFF740FE70
S31500000B6038613B69002B05D0BB691B6978699847DA
S31500000B70642303E0FB6905221A7700231846203711
S31500000B80BD4680BD4CEB030080B483B000AF7860F7
S31500000B9039603B68DAB27B6883F8C6213B68184641
S31500000BA00C37BD465DF8047B704700BF80B586B044
S31500000BB000AFF860B9607A603B607B6A23F030036F
S31500000BC07B617B6A03F01003002B0CD0FB68D3F823
S31500000BD0803003F40003002B05D1F8680921FFF7E4
S31500000BE0D3FF034645E07B6A03F02003002B0CD0BD
S31500000BF0FB68D3F8803003F40013002B05D1F868A6
S31500000C000921FFF7C1FF034633E07B690D2B05D0B1
S31500000C107B690E2B02D07B690F2B12D1FB68D3F8B0
S31500000C20803003F48033002B0BD1FB68D3F880307F
S31500000C30DBB2092B05D8F8680921FFF7A5FF0346A3
S31500000C4017E0FB685B6A3B613B69BA68C3F86821D9
S31500000C503B697A68C3F86C213B693A68C3F870212E
S31500000C603B693A6AC3F874213B697A6AC3F878210A
S31500000C70002318461837BD4680BD00BFB0B59CB0EE
S31500000C8006AFF860B9607A607B8000237B6300233F
S31500000C90FB62FB681B6BBB6200233B63FB685B6A02
S31500000CA07B627B6AD3F8783103F01003FB627B6AC0
S31500000CB0D3F86C31B3F5006F03DBFB6F23F0080349
S31500000CC0FB67BB687B647B683B647A887B6C1A44F1
S31500000CD07B6AD3F870319A4205DD7B6AD3F87021BE
S31500000CE07B88D31A7B64B7F868203B6C1A447B6A0E
S31500000CF0D3F874319A4206DD7B6AD3F87421B7F8CB
S31500000D006830D31A3B64FB685B6A3B62BB6A002BA4
S31500000D1000F09D80FB6F03F48073002B40F09780FA
S31500000D207B6ADA7DBB6A1A707B6A93F80E21BB6A0E
S31500000D309A707B6A93F8D520BB6A5A707B6AD3F89F
S31500000D40FC20BB6A5A607B6AD3F80021BB6A9A60B2
S31500000D507B6AD3F82C21BB6ADA607B6A93F8E920B8
S31500000D60BB6A83F829207B6AD3F83821BB6A1A61EB
S31500000D707B6AD3F83421BB6A5A617B6A93F8E82010
S31500000D80BB6A83F828207B6AD3F8EC20BB6A9A6199
S31500000D907B6AD3F8F020BB6ADA617B6AD3F8F42069
S31500000DA0BB6A1A627B6AD3F8F820BB6A5A627B6A0E
S31500000DB093F8EA20BB6A83F82A207B6A93F8EB2033
S31500000DC0BB6A83F82B207B6AD3F83C21BB6ADA62C4
S31500000DD07B6AD3F84021BB6A1A637B6AD3F8242165
S31500000DE0BB6A5A637B6AD3F85821BB6A9A637B6AEB
S31500000DF0D3F85C21BB6ADA637B6AB3F8A820BB6AC6
S31500000E00A3F854207B6AB3F8AA20BB6AA3F856203D
S31500000E107B6AD3F8A020BB6ADA647B6AD3F8A42085
S31500000E20BB6A1A657B6AD3F89820BB6A5A647B6AE8
S31500000E30D3F89C20BB6A9A647B6AD3F8B020BB6A5D
S31500000E40DA657B6AD3F8B420BB6A1A6602E07B6A6D
S31500000E50DB7D3B63F868032101F0A8FCF8680021FC
S31500000E60002209F05DFFFB6A002B04D07B6AD3F8F1
S31500000E7068317B63D7E07B6AD3F8783123F030039F
S31500000E80FB61FB69422B00F2CD8001A252F823F0F0
S31500000E90C70F0000E50F000005100000E50F000079
S31500000EA0E50F00009D0F000005100000E50F000093
S31500000EB0E50F0000C70F0000C70F0000C70F0000B6
S31500000EC0C70F0000C70F0000C70F0000C70F0000C4
S31500000ED02510000025100000251000002510000038
S31500000EE02510000025100000251000002510000028
S31500000EF02510000025100000251000002510000018
S31500000F002510000025100000251000002510000007
S31500000F1025100000251000002510000025100000F7
S31500000F2025100000251000002510000025100000E7
S31500000F3025100000251000002510000025100000D7
S31500000F4025100000251000002510000025100000C7
S31500000F5025100000251000002510000025100000B7
S31500000F6025100000251000002510000025100000A7
S31500000F702510000025100000251000002510000097
S31500000F802510000025100000251000002510000087
S31500000F9005100000E50F0000E50F0000FB68D3F820
S31500000FA0803003F40013002B05D1F8680921FFF700
S31500000FB0EBFD0346F6E13B6A554AC3F82C213B6A32
S31500000FC0012283F8E9207B6AD3F868217B88B7F889
S31500000FD06810786AD0F86C0100FB01F10B441344E9
S31500000FE07B6320E07B6AD3F868217B88B7F86810BA
S31500000FF0786AD0F86C0100FB01F10B445B001344E6
S315000010007B6310E07B6AD3F868217B88B7F86810A9
S31500001010786AD0F86C0100FB01F10B449B00134485
S315000010207B6300E000BFFB6F03F00F03F86819460F
S3150000103009F094FDFB6A002B14D07B6AD3F86C513F
S315000010407B6AD3F870417B6AD3F874217B6AD3F844
S31500001050783100920193F868796B2A46234609F0A5
S31500001060D1FA0EE07B6AD3F86C417B6AD3F878310B
S315000010703A6C00920193F868796B22467B6C09F012
S31500001080C1FAFB6F03F02003002B10D0FB6F03F0B7
S315000010908003002B05D04FF07F43FB630023BB6327
S315000010A00BE00023FB634FF07F43BB6305E04FF08B
S315000010B07F43FB634FF07F43BB63FB6F03F010037B
S315000010C0002B15D0FB6F03F04003002B0AD07B6A80
S315000010D09B68FA6B1343FB637B6ADB68BA6B13434B
S315000010E0BB631BE07B6A9B68BA6B1343BB6315E06B
S315000010F0FB6F03F04003002B0CD07B6A9B68FA6BF6
S315000011001343FB637B6ADB68BA6B1343BB6305E07F
S3150000111010000400BB6B63F07F43BB633B6AFA6B52
S31500001120C3F858213B6ABA6BC3F85C213B6A93F853
S315000011300E3143F00503DAB23B6A83F80E214FF411
S3150000114080337B654FF480333B650023FB640023CB
S31500001150BB64BB681B01BB617B681B017B61B7F885
S315000011606C30102B0CD9BB691B041A46B7F86C30CF
S31500001170B2FBF3F37B657B6DDA0F13445B10FB6404
S31500001180B7F97030102B0CDD7B691B041A46B7F8D3
S315000011907030B2FBF3F33B653B6DDA0F13445B1023
S315000011A0BB64FB6F03F40073002B07D07B6D5B42BF
S315000011B07B65BB681A04FB6CD31AFB64FB6F03F4F4
S315000011C08063002B07D03B6D5B423B657B681A044E
S315000011D0BB6CD31ABB64FB6F03F00403002B03D074
S315000011E0FB6CA3F50043FB64FB6F03F00803002BC5
S315000011F003D0BB6CA3F50043BB64FB6A002B0AD08B
S315000012007B881B04FA6C1344FB64B7F868301B0434
S31500001210BA6C1344BB64B7F97410B7F97820BB6C89
S3150000122000937B6D019300230293002303933B6D90
S315000012300493F868FB6C09F02BFDB7F97420B7F935
S315000012407840B7F96C300093B7F970300193F868BD
S31500001250396A234600F0F4FABB6A002B00F09D8041
S31500001260FB6F03F48073002B40F09780BB6A1A78FB
S315000012707B6ADA75BB6A9A787B6A83F80E21BB6A49
S315000012805A787B6A83F8D520BB6A5A687B6AC3F8AA
S31500001290FC20BB6A9A687B6AC3F80021BB6ADA68DD
S315000012A07B6AC3F82C21BB6A93F829207B6A83F8F2
S315000012B0E920BB6A1A697B6AC3F83821BB6A5A6996
S315000012C07B6AC3F83421BB6A93F828207B6A83F8CB
S315000012D0E820BB6A9A697B6AC3F8EC20BB6ADA69C4
S315000012E07B6AC3F8F020BB6A1A6A7B6AC3F8F420EB
S315000012F0BB6A5A6A7B6AC3F8F820BB6A93F82A204D
S315000013007B6A83F8EA20BB6A93F82B207B6A83F812
S31500001310EB20BB6ADA6A7B6AC3F83C21BB6A1A6BAC
S315000013207B6AC3F84021BB6A5A6B7B6AC3F82421E7
S31500001330BB6A9A6B7B6AC3F85821BB6ADA6B7B6A15
S31500001340C3F85C21BB6AB3F854207B6AA3F8A820D3
S31500001350BB6AB3F856207B6AA3F8AA20BB6ADA6C8C
S315000013607B6AC3F8A020BB6A1A6D7B6AC3F8A42007
S31500001370BB6A5A6C7B6AC3F89820BB6A9A6C7B6A14
S31500001380C3F89C20BB6ADA6D7B6AC3F8B020BB6ADF
S315000013901A6E7B6AC3F8B42003E0F868396B01F073
S315000013A005FA002318465837BD46B0BD80B586B04D
S315000013B000AFF860B9607A60FB68D3F8B8317B613A
S315000013C0FB68D3F8B83103F10802FB68C3F8B8210B
S315000013D07B69BA681A607B697A685A60FB68D3F8D9
S315000013E0BC315A1EFB68C3F8BC21FB68D3F8BC317C
S315000013F0002B04DCFB68D3F8C031F868984718372F
S31500001400BD4680BD80B58CB002AFF860B9601146AC
S315000014101A460B46FB801346BB80B7F93030002BCB
S3150000142003D0B7F93430002B01DC002301E23B8EF8
S31500001430103B9BB23B86BB8E103B9BB2BB86FA88A9
S315000014403B8E13449BB27B83BA88BB8E13449BB2FC
S315000014503B83FB8823F00F039BB23B82BB8823F0C0
S315000014600F039BB27B827B8B0F339BB29BB223F025
S315000014700F039BB2BB823B8B0F339BB29BB223F015
S315000014800F039BB2FB8207F11003F86819460AF0B6
S31500001490CDFF0346002B01D10023CAE1F868B968E5
S315000014A008F030FABB6893F8D53003F00203002B3E
S315000014B010D0FA887B8B13439BB29BB203F00F03C9
S315000014C07B62BA883B8B13439BB29BB203F00F033C
S315000014D03B6203E000237B6200233B62BB6893F818
S315000014E0D53003F00103002B00F095803B8A1AB239
S315000014F0B7F90630D31A1A46BB68D3F8103103FB86
S3150000150002F31A09BB68D3F810311344F8680421B2
S315000015101A46FFF74BFFBB68D3F81031F8680A216B
S315000015201A46FFF743FFF86810210022FFF73EFF37
S31500001530B7F91A203B8A1BB2D31A1A46BB68D3F8EE
S31500001540103103FB02F31A09BB68D3F810311344B8
S31500001550F86805211A46FFF729FFBB68D3F8103152
S315000015605B42F8680B211A46FFF720FFF868112145
S315000015700022FFF71BFF7B8A1AB2B7F90430D31A91
S315000015801A46BB68D3F8103103FB02F31A09BB688D
S31500001590D3F810311344F86806211A46FFF706FF00
S315000015A0F8680C210022FFF701FFBB68D3F8103161
S315000015B0F86812211A46FFF7F9FEB7F918207B8A58
S315000015C01BB2D31A1A46BB68D3F8103103FB02F3D9
S315000015D01A09BB68D3F810311344F86807211A4674
S315000015E0FFF7E4FEF8680D210022FFF7DFFEBB6877
S315000015F0D3F810315B42F86813211A46FFF7D6FE7E
S3150000160007F110020F230093F868B968042304F069
S315000016102DFCF861EFE07B6A002B47D13B6A002B7B
S315000016200AD107F1100200230093F868B968002375
S3150000163004F01CFCF861DEE07B8A1AB2B7F90430CC
S31500001640D31A1B0303F58033F86804211A46FFF703
S31500001650ADFEF8680A210022FFF7A8FEF8681021FF
S315000016604FF48032FFF7A2FEB7F918207B8A1BB22F
S31500001670D31A1B0303F58033F86805211A46FFF7D2
S3150000168095FEF8680B210022FFF790FEF8681121FD
S315000016906A4AFFF78BFE07F1100203230093F868EE
S315000016A0B968022304F0E2FBF861A4E03B6A002B70
S315000016B039D13B8A1AB2B7F90630D31A1B0303F5A0
S315000016C08033F86804211A46FFF770FEF8680A218D
S315000016D04FF48032FFF76AFEF86810210022FFF708
S315000016E065FEB7F91A203B8A1BB2D31A1B0303F512
S315000016F08033F86805211A46FFF758FEF8680B2173
S315000017004E4AFFF753FEF86811210022FFF74EFEFE
S3150000171007F1100203230093F868B968022304F066
S31500001720A5FBF86167E03B8A1AB2B7F90630D31A0F
S315000017301B0303F58033F86804211A46FFF736FECB
S31500001740F8680A214FF48032FFF730FEF86810215E
S315000017500022FFF72BFEB7F91A203B8A1BB2D31AD9
S315000017601B0303F58033F86805211A46FFF71EFEB2
S31500001770F8680B21314AFFF719FEF868112100229B
S31500001780FFF714FE7B8A1AB2B7F90430D31A1B038B
S3150000179003F58033F86806211A46FFF707FEF86856
S315000017A00C210022FFF702FEF86812214FF4803266
S315000017B0FFF7FCFDB7F918207B8A1BB2D31A1B036F
S315000017C003F58033F86807211A46FFF7EFFDF8683E
S315000017D00D210022FFF7EAFDF8681321174AFFF7EB
S315000017E0E5FD07F110020F230093F868B96804239A
S315000017F004F03CFBF86107F11003F868B9681A4673
S31500001800002307F0BBF907F11003F868B9681A4618
S31500001810002309F099FEFB69F86800211A46FFF7D4
S31500001820C5FD07F11003F8681946002208F070FAA2
S31500001830012318462837BD4680BD00BF0000FFFFC4
S3150000184090B587B002AFF860B96011461A460B46EC
S31500001850FB801346BB80B7F90620B7F90440B7F9F9
S3150000186020300093B7F924300193F868B96823460D
S31500001870FFF7C8FD034618461437BD4690BD00BFA6
S3150000188090B587B002AFF860084611461A4603467F
S315000018907B810B463B811346FB80FB68996AB7F94F
S315000018A00A20B7F90840B7F906300093B7F9203097
S315000018B00193F8682346FFF7A5FD00231846143761
S315000018C0BD4690BD90B587B002AFF8600846114698
S315000018D01A4603467B810B463B811346FB80FB6819
S315000018E0D96AFB68B3F86E309AB27B8913449BB20F
S315000018F098B2FB68B3F870309AB23B8913449BB236
S315000019009BB202B21CB2B7F906300093B7F9203089
S315000019100193F8682346FFF775FD00231846143730
S31500001920BD4690BDB0B592B006AFF8600846114608
S315000019301A4603467B810B463B811346FB80FB68B8
S31500001940B3F86C30FB85FB68DB6ABB62B7F92E30F7
S31500001950002B40F3E680B7F92E30DA0F13445B1004
S31500001960FB84B7F92E30102B13D0BB6A93F8D7300F
S31500001970012B76D1BB6AB3F8D830B7F92E201BB24B
S315000019809A426EDABB6A93F8D53003F00103002B56
S3150000199067D1FB68D96A7A89FB8DD31A9BB29DB24F
S315000019A03A89FB8DD31A9BB29CB2FB8D5B009AB22F
S315000019B0B7F8403013449BB298B22AB224B2B7F9B2
S315000019C02E30009303B20193F8682346FFF71AFD01
S315000019D0FB68D96A3A89FB8DD31A9BB29BB2B7F9D9
S315000019E00A201CB2B7F906300093B7F92E300193DE
S315000019F0F8682346FFF706FDFB68D96A7A89FB88F3
S31500001A0013449BB29DB23A89FB8DD31A9BB29CB20A
S31500001A10FB8D5B009AB2B7F8403013449BB298B284
S31500001A202AB224B2B7F92E30009303B20193F868B4
S31500001A302346FFF7E7FCFB68D96A3A89B7F84030D6
S31500001A4013449BB29BB2B7F90A201CB2B7F9063011
S31500001A500093B7F92E300193F8682346FFF7D2FCBE
S31500001A605FE07A89FB8CD31A9BB2083B9BB29BB290
S31500001A70BB823A89FB8CD31A9BB2083B9BB29BB2C2
S31500001A80FB827A89FB8813449AB2FB8C13449BB27F
S31500001A90083B9BB29BB23B833A89FB8CD31A9BB221
S31500001AA0083B9BB29BB27B837A89FB8813449AB22C
S31500001AB0FB8C13449BB2083B9BB29BB2BB833A8917
S31500001AC0B7F8403013449AB2FB8C13449BB2083BE0
S31500001AD09BB29BB2FB837A89FB8CD31A9BB2083BE1
S31500001AE09BB29BB23B843A89B7F8403013449AB212
S31500001AF0FB8C13449BB2083B9BB29BB27B8407F1E1
S31500001B00140204230093B7F92E30019304230293A1
S31500001B100023039300230493F868B96A002307F0AF
S31500001B208DF8002318463037BD46B0BDB0B586B037
S31500001B3002AFF860084611461A4603467B810B46FB
S31500001B403B811346FB80B7F90A10B7F90820B7F9AD
S31500001B500640B7F920300093F8682346FFF7E2FE07
S31500001B60F86807F05DFDFB68996A7B89103B9BB2BC
S31500001B709AB23B89103B9BB29CB2FB8820339BB246
S31500001B809DB23B8C20339BB298B212B224B22BB2D8
S31500001B90009303B20193F8682346FFF733FCF86815
S31500001BA007F084FD002318461037BD46B0BD00BFC0
S31500001BB090B587B002AFF860084611461A4603464C
S31500001BC07B810B463B811346FB80FB68D96AFB6829
S31500001BD0B3F86E309AB27B8913449BB298B2FB6815
S31500001BE0B3F870309AB23B8913449BB29BB202B2EF
S31500001BF01CB2B7F906300093B7F920300193F868A4
S31500001C002346FFF7FFFBF86807F00AFDFB68996AB1
S31500001C10B7F90A20B7F90840B7F906300093B7F9C3
S31500001C2020300193F8682346FFF7ECFBF86807F0CD
S31500001C303DFD002318461437BD4690BD80B586B0DD
S31500001C4000AFF860B9607A60FB68D3F8B8317B61A1
S31500001C50FB68D3F8B83103F10802FB68C3F8B82172
S31500001C607B69BA681A607B697A685A60FB68D3F840
S31500001C70BC315A1EFB68C3F8BC21FB68D3F8BC31E3
S31500001C80002B04DCFB68D3F8C031F8689847183796
S31500001C90BD4680BD90B593B006AFF860B9601146F9
S31500001CA01A460B46FB801346BB8000237B62B7F9BE
S31500001CB04430002B46DDB7F94430DA0F13445B108D
S31500001CC07B847A8CB7F8403013449BB23B84FA8805
S31500001CD03B8CD31A9BB29BB223F00F039BB2BB8201
S31500001CE0BA883B8CD31A9BB29BB223F00F039BB2EC
S31500001CF0FB82FA883B8C13449BB20F339BB29BB298
S31500001D0023F00F039BB23B83BA883B8C13449BB2F0
S31500001D100F339BB29BB223F00F039BB27B83B7F9C1
S31500001D204020B7F92230D31A082B0ADCB7F8402036
S31500001D307B8C13449BB2A7F840300023A7F84430AD
S31500001D402CE02BE0FA88B7F84030D31A9BB29BB24E
S31500001D5023F00F039BB2BB82BA88B7F84030D31A80
S31500001D609BB29BB223F00F039BB2FB82FA88B7F8B3
S31500001D70403013449BB20F339BB29BB223F00F0348
S31500001D809BB23B83BA88B7F8403013449BB20F33FB
S31500001D909BB29BB223F00F039BB27B83BB68B3F865
S31500001DA0DA301BB2002B60DDBB68B3F8DA301BB249
S31500001DB07B62BB8A1AB27B6AD21AFB68B3F87230AE
S31500001DC01BB29A4204DAFB68B3F87230BB8207E0B2
S31500001DD0BB8A9AB27B6A9BB2D31A9BB29BB2BB8276
S31500001DE0FB8A1AB27B6AD21AFB68B3F874301BB24C
S31500001DF09A4204DAFB68B3F87430FB8207E0FB8A88
S31500001E009AB27B6A9BB2D31A9BB29BB2FB823B8B84
S31500001E101AB27B6A1A44FB68B3F876301BB29A4250
S31500001E2004DDFB68B3F876303B8307E03B8B9AB260
S31500001E307B6A9BB213449BB29BB23B837B8B1AB2E9
S31500001E407B6A1A44FB68B3F878301BB29A4204DD09
S31500001E50FB68B3F878307B8307E07B8B9AB27B6AAA
S31500001E609BB213449BB29BB27B8307F11403F868C1
S31500001E7019460AF0DBFA0346002B01D1002338E1AC
S31500001E80FA88BB8A9BB2D31A9BB2FB80BA88FB8ABC
S31500001E909BB2D31A9BB2BB80F868B96807F032FDD3
S31500001EA0BB68D3F82831FB61B7F94430002B48D121
S31500001EB0B7F90640B7F904300093B7F940300193FB
S31500001EC0002302930023039301230493F868B9685F
S31500001ED00022234600F08EFFFB6903F4007343F4EF
S31500001EE0400343F04103BB62FB68D3F8803003F044
S31500001EF08063002B0DD0BB6893F8D53003F0010347
S31500001F00002B02D04FF0807300E00023BA6A13431F
S31500001F10BB6207F11402BB6A0093F868B968022332
S31500001F2003F0A4FFB862BB6AF86800211A46FFF7FF
S31500001F3085FEB7F940207B6A13440F331B09FB6209
S31500001F40BFE0B7F94020B7F94430B7F9441001FBB8
S31500001F5003F39A424ADDBB6893F8D53003F00103D8
S31500001F60002B43D1B7F8403001339BB2A7F840307D
S31500001F70B7F944301033DA0F13445B101B031A46CB
S31500001F80B7F90640B7F904300093B7F9403001932A
S31500001F9002920023039301230493F868B968002290
S31500001FA0234600F027FFFB6903F4007343F4004364
S31500001FB043F04103BB6207F11402BB6A0093F86861
S31500001FC0B968022303F052FFB862B7F944301B0325
S31500001FD0F86816211A46FFF731FEBB6AF868002139
S31500001FE01A46FFF72BFE0023FB626AE0B7F944307E
S31500001FF0DA0F13445B109BB29AB2B7F84030134421
S315000020009BB29AB2B7F90640B7F90430009313B2FF
S315000020100193002302930023039301230493F8689A
S31500002020B9680022234600F0E5FEB7F84020B7F96C
S315000020304430D90F0B445B109BB29BB2D31A9BB2B0
S315000020409AB2B7F90640B7F90430009313B2019378
S315000020502A4B02930123039301230493F868B9687A
S315000020600222234600F0C6FEFB6903F4206343F018
S31500002070C503BB62FB68D3F8803003F08063002B96
S315000020800DD0BB6893F8D53003F00103002B02D0C6
S315000020904FF0807300E00023BA6A1343BB6207F176
S315000020A01402BB6A0093F868B968042303F0DEFEE5
S315000020B0B862BB6AF86800211A46FFF7BFFD002325
S315000020C0FB6207F11403F868B9681A46002306F0A4
S315000020D055FD07F11403F868B9681A46002309F09C
S315000020E033FA07F11403F8681946FA6A07F010FE86
S315000020F0012318463437BD4690BD00BF0080FFFF60
S3150000210090B587B002AFF860084611461A460346F6
S315000021107B810B463B811346FB80FB68996AB7F9C6
S315000021200A20B7F90840B7F906300093B7F920300E
S315000021300193F8682346FFF7ADFD002318461437D0
S31500002140BD4690BD90B587B002AFF860084611460F
S315000021501A4603467B810B463B811346FB80FB6890
S31500002160D96AFB68B3F86E309AB27B8913449BB286
S3150000217098B2FB68B3F870309AB23B8913449BB2AD
S315000021809BB202B21CB2B7F906300093B7F9203001
S315000021900193F8682346FFF77DFD002318461437A0
S315000021A0BD4690BDB0B588B002AFF860084611468E
S315000021B01A4603467B810B463B811346FB80FB6830
S315000021C0B3F86C30FB82B7F91630002B01DC002324
S315000021D04CE0B7F92830002B23DDFB68DD6AFA886E
S315000021E0B7F92830D90F0B445B109BB29BB2D31AB8
S315000021F09AB2B7F91630D90F0B445B109BB29BB25B
S31500002200D31A9BB29BB2B7F90A20B7F908401BB2A2
S315000022100093B7F916300193F86829462346FFF76D
S3150000222039FDFB68DD6AB7F92830DA0F13445B1015
S315000022309BB29AB2FB8813449AB2B7F91630D90FFB
S315000022400B445B109BB29BB213449BB29BB2B7F993
S315000022500A20B7F908401BB20093B7F9163001936C
S31500002260F86829462346FFF715FD00231846183758
S31500002270BD46B0BDB0B588B002AFF860084611469D
S315000022801A4603467B810B463B811346FB80FB685F
S31500002290B3F86C30FB82B7F92830002B19DDB7F99B
S315000022A01630002B15DDFB68D96AFB8A5B009AB2F3
S315000022B03B8D13449BB298B2B7F90A20B7F9084090
S315000022C0B7F90630009303B20193F8682346FFF787
S315000022D0E1FCB7F92830002B20D1B7F91630002BD6
S315000022E01CDDFB68D96AB7F91630103BDA0F1344C8
S315000022F05B109AB2FB8813449BB29DB2FB8A0833EB
S315000023009BB298B2B7F90A20B7F908402BB20093EE
S3150000231003B20193F8682346FFF7BCFCF86807F0A0
S315000023207FF9FB68996AB7F90A20B7F90840B7F947
S3150000233006300093B7F928300193F8682346FFF773
S31500002340A9FCF86807F0B2F9002318461837BD460D
S31500002350B0BD00BF90B587B002AFF8600846114621
S315000023601A4603467B810B463B811346FB80FB687E
S31500002370D96AFB68B3F86E309AB27B8913449BB274
S3150000238098B2FB68B3F870309AB23B8913449BB29B
S315000023909BB202B21CB2B7F906300093B7F92030EF
S315000023A00193F8682346FFF775FCF86807F038F9DB
S315000023B0FB68996AB7F90A20B7F90840B7F90630F9
S315000023C00093B7F920300193F8682346FFF762FCC3
S315000023D0F86807F06BF9002318461437BD4690BD20
S315000023E080B483B000AF786039603B68DAB27B684E
S315000023F083F8C6213B6818460C37BD465DF8047B5A
S31500002400704700BF80B584B000AF78604FF4BE70EF
S3150000241006F0D2F9F860FB68002B05D17868012137
S31500002420FFF7DEFF002358E1FB687A685A60FB6815
S315000024306FF07F429A60FB686FF07F42DA60FB685C
S31500002440FF229A74FB68FF22DA74FB684FF07F4222
S31500002450C3F84C21FB68FF221A74FB68FF225A74EA
S31500002460FB684FF07F42C3F85021FB684FF07F4274
S31500002470C3F85421FB68022283F8D520FB680022AA
S31500002480C3F82821FB68002283F80E21FB6810227E
S315000024909A82FB684FF48032C3F81021FB684FF430
S315000024A0B052C3F81C217B68D3F8803003F0006378
S315000024B0002B05D1FB684FF48002C3F820210BE006
S315000024C0FB68884AC3F82021FB68D3F8203143F41F
S315000024D08002FB68C3F82021FB684FF47032C3F812
S315000024E03421FB68042283F8E920FB684FF40022BC
S315000024F0C3F82C21FB680022C3F83C21FB680022AC
S31500002500C3F84021FB680022C3F844217B685A6D5A
S31500002510FB68D3F820311A43FB68D3F81C311A4301
S31500002520FB68D3F82C311A43FB68D3F83C311A43C5
S31500002530FB68D3F840311A43FB68D3F844311A4399
S31500002540FB68C3F82421FB6800225A76FB68012247
S315000025509A75FB680022DA75FB6800221A76FB681A
S31500002560AA22C3F81421FB68AA22C3F8C420FB6878
S31500002570012283F8D420FB684FF48032C3F830215F
S31500002580FB680022C3F8CC20FB681022C3F8D020D9
S31500002590FB684FF48032C3F81821FB680422C3F8A5
S315000025A0C820FB68012283F8D620FB68012283F845
S315000025B0D720FB684022A3F8D820FB680022A3F8A6
S315000025C0DA20FB68002283F80F21FB680022C3F89B
S315000025D0FC20FB680022C3F80021FB680022C3F838
S315000025E00421FB680022C3F80821FB68012283F856
S315000025F00C21FB68002283F80D21FB680022C3F83A
S315000026004821FB681C33184603F060FBFB68343333
S31500002610184603F05BFBFB684C33184603F056FB89
S31500002620FB686433184603F051FBFB687C3318469D
S3150000263003F04CFBFB689433184603F047FBFB683A
S31500002640AC33184603F042FBFB680C2283F8E82003
S31500002650FB684FF0FF32C3F83821FB68002283F88D
S31500002660DC20FB68002283F8DD20FB68002283F86B
S31500002670DE20FB68002283F8DF20FB68FF2283F858
S31500002680E020FB68FF2283F8E120FB68FF2283F845
S31500002690E220FB68FF2283F8E320FB68012283F82F
S315000026A0E420FB68032283F8E520FB68032283F815
S315000026B0E620FB68032283F8E7207868F96808F0CB
S315000026C0EBFC7B68DA69FB681A607B68FA68DA619A
S315000026D078680021FFF784FEFB6818461037BD4670
S315000026E080BD00BF0800002080B584B000AF7860D0
S315000026F039607B681A6A3B689A4205D17868072177
S31500002700FFF76EFE03464DE07B681C33FB6002E07C
S31500002710FB681B68FB60FB68002B04D0FB681A682B
S315000027203B689A42F4D1FB68002B05D178680321F7
S31500002730FFF756FE034635E03B681A68FB681A60E9
S315000027407B685A6A3B689A4203D17B681A6A7B683F
S315000027505A627B68DA6A3B689A4203D17B681A6AD6
S315000027607B68DA627B689A6A3B689A4203D17B6827
S315000027701A6A7B689A623B68D3F80831002B09D045
S315000027803B68D3F8083118460BF0A4F83B680022E2
S31500002790C3F80821386806F01BF878680021FFF7AF
S315000027A01FFE034618461037BD4680BD80B584B06F
S315000027B000AF786039607B685B6AFB603B68DAB2C1
S315000027C0FB68DA75FB6893F80E3143F00103DAB261
S315000027D0FB6883F80E213B68032B3CD801A252F814
S315000027E023F000BFF5270000092800001D2800007F
S315000027F043280000FB6893F8D53023F00C03DAB2C7
S31500002800FB6883F8D52027E0FB6893F8D53023F0E2
S315000028100C03DAB2FB6883F8D5201DE0FB6893F859
S31500002820D53043F00403DAB2FB6883F8D520FB68A1
S3150000283093F8D53023F00803DAB2FB6883F8D52085
S315000028400AE0FB6893F8D53043F00C03DAB2FB6874
S3150000285083F8D52000E000BF78680021FFF7C0FDAF
S31500002860034618461037BD4680BD00BF80B584B00C
S3150000287000AFF860B9607A60FB685B6A7A6822F03C
S315000028807F41BA68023243F82210FB685B6AFA6835
S31500002890526A92F80E2142F00102D2B283F80E215A
S315000028A0F8680021FFF79CFD034618461037BD4621
S315000028B080BD00BF80B584B000AF78600B46FB706A
S315000028C07B685B6AFB60FB6893F80E3143F001039B
S315000028D0DAB2FB6883F80E21FB689B7CFA789A4291
S315000028E008D0FB6893F80E3143F00603DAB2FB68B2
S315000028F083F80E21FB68FA789A74FB689B7D03F0D7
S315000029000103002B04D0FB781A06FB68C3F84C21A0
S3150000291078680021FFF764FD034618461037BD4668
S3150000292080BD00BF80B586B000AFF860B9607A6040
S31500002930FB685B6A3B613B6993F80E3143F0010328
S31500002940DAB23B6983F80E2100237B61BB68032B57
S3150000295019D801A252F823F0692900009329000032
S31500002960732900007D2900007B6943F400637B61C5
S3150000297010E07B6943F400737B610BE07B6943F4F1
S3150000298020637B6106E0F8681021FFF729FD034606
S315000029904AE000BF7B68032B19D801A252F823F046
S315000029A0B1290000DB290000BB290000C529000071
S315000029B07B6943F480537B6110E07B6943F4806359
S315000029C07B610BE07B6943F4A0537B6106E0F8680A
S315000029D01021FFF705FD034626E000BF3B697A6933
S315000029E0C3F81C21FB685A6D3B69D3F81C311A43A6
S315000029F03B69D3F82C311A433B69D3F820311A438B
S31500002A003B69D3F83C311A433B69D3F840311A434A
S31500002A103B69D3F844311A433B69C3F82421F8686B
S31500002A200021FFF7DDFC034618461837BD4680BD7A
S31500002A3080B586B000AFF860B9607A60FB685B6A03
S31500002A403B613B6993F80E3143F00103DAB23B690F
S31500002A5083F80E213B6900221A76FB68D3F8803092
S31500002A6003F00063002B1FD14FF480037B61BB682A
S31500002A70012B07D17B68002B04D17B6923F400036B
S31500002A807B6110E0BB68002B07D17B68012B04D16A
S31500002A907B6943F400037B6105E0F8681021FFF7CA
S31500002AA09FFC034678E051E008237B617B6943F491
S31500002AB080037B61BB68032B1BD801A252F823F06D
S31500002AC0D12A0000FF2A0000DB2A0000E52A0000C8
S31500002AD07B6943F080537B6112E07B6943F04003DE
S31500002AE07B610DE07B6943F0805343F040037B61DB
S31500002AF006E0F8681021FFF773FC03464CE000BFC0
S31500002B007B68032B1BD801A252F823F01D2B000073
S31500002B104B2B0000272B0000312B00007B6943F074
S31500002B2000537B6112E07B6943F080037B610DE01B
S31500002B307B6943F0005343F080037B6106E0F8684D
S31500002B401021FFF74DFC034626E000BF3B697A697A
S31500002B50C3F82021FB685A6D3B69D3F81C311A4330
S31500002B603B69D3F82C311A433B69D3F820311A4319
S31500002B703B69D3F83C311A433B69D3F840311A43D9
S31500002B803B69D3F844311A433B69C3F82421F868FA
S31500002B900021FFF725FC034618461837BD4680BDC1
S31500002BA080B584B000AF786039607B685B6AFB6093
S31500002BB03B68002B0DD0FB6893F8D53043F0020339
S31500002BC0DAB2FB6883F8D520FB680022C3F8282117
S31500002BD01EE0FB6893F8D53023F00203DAB2FB68F7
S31500002BE083F8D520FB684FF4FC42C3F82821FB6824
S31500002BF04FF48032C3F81021FB6893F8D53023F0E8
S31500002C000103DAB2FB6883F8D520FB6810229A82AA
S31500002C1078680021FFF7E4FB034618461037BD46E7
S31500002C2080BD00BF80B584B000AF786039607B6836
S31500002C305B6AFB603B68DAB2FB6883F8D72078688A
S31500002C400021FFF7CDFB034618461037BD4680BD71
S31500002C5080B586B000AFF860B96011461A460B46DB
S31500002C60FB801346BB80FB68002B49D0FB68596A82
S31500002C70BB685A1C13465B001344DB000B44043349
S31500002C807B613A6A7B6A1343002B0FD1FB685B6A50
S31500002C90FA68526A517E0120BA6800FA02F2D2B28C
S31500002CA0D243D2B20A40D2B25A7623E0BB6A43F08C
S31500002CB001027B691A607B69FA889A827B69BA8805
S31500002CC0DA827B693A6A5A607B697A6A9A607B69BA
S31500002CD00022DA607B6900221A61FB685B6AFA6887
S31500002CE0526A517E0120BA6800FA02F2D2B20A4351
S31500002CF0D2B25A76F8680021FFF772FB034600E06D
S31500002D00022318461837BD4680BD00BF80B485B083
S31500002D1000AF78607B68D3F84C311B0AFB607B6898
S31500002D201B7C1A46FB6803FB02F303F1FF1303F552
S31500002D307F4303F07F427B68C3F850217B685B7C4E
S31500002D401A46FB6803FB02F303F1FF1303F57F4307
S31500002D5003F07F427B68C3F854217B6893F80E31F9
S31500002D6023F00203DAB27B6883F80E211437BD46DE
S31500002D705DF8047B704700BF80B584B000AF786013
S31500002D807B685B6ADB7DFB7378680021FFF728FBB5
S31500002D90FB7B18461037BD4680BD00BF80B586B0A8
S31500002DA000AFF860B9607A60FB68D3F8B8317B6130
S31500002DB0FB68D3F8B83103F10802FB68C3F8B82101
S31500002DC07B69BA681A607B697A685A60FB68D3F8CF
S31500002DD0BC315A1EFB68C3F8BC21FB68D3F8BC3172
S31500002DE0002B04DCFB68D3F8C031F8689847183725
S31500002DF0BD4680BD2DE9F04FA1B000AF78633963C1
S31500002E00FA627B857A8DB7F8AC30D31A9BB2A7F8F5
S31500002E106E30B7F8A820B7F8AC30D31A9BB2A7F833
S31500002E206C303B6B93F8D53003F00103002B00F0B8
S31500002E30B481D7F8B830002B07D07B6BD3F880303D
S31500002E4003F08063002B40F011813B6B9B8AA7F84F
S31500002E506A303B6BD3F810317B66B7F9AC30B7F903
S31500002E606A2002FB03F34FF0784292FBF3F33B67D1
S31500002E70B7F9AC204FEAE2734FF078404FF0FF31DC
S31500002E803BF0CCF902460B4619027962796A41EAAF
S31500002E901261796213023B62B7F96A204FEAE27364
S31500002EA0D7E908013BF0BAF902460B46C7E91423F5
S31500002EB0B7F96E30B7F96E2002FB03F2B7F96C3042
S31500002EC0B7F96C1001FB03F31344002B00DAFF3350
S31500002ED01B121A463B6F03FB02F3002B00DA0F337B
S31500002EE01B111846B7F9AC30DA0F13445B109BB2CE
S31500002EF01AB2B7F96E10B7F96C300B4413447A6EF8
S31500002F0002FB03F3002B00DA0F331B11C31A7B6796
S31500002F10B7F96E30B7F96E2002FB03F2B7F96C30E1
S31500002F20B7F96C1001FB03F31344002B00DAFF33EF
S31500002F301B121A464FEAE273396D03FB01F0796DF5
S31500002F4002FB01F10144386DA0FB022319440B4634
S31500002F50002A73F1000102DA0F3243F1000314096B
S31500002F6044EA03741D11B7F9AC30DA0F13445B1051
S31500002F709BB21AB2B7F96E10B7F96C300B44134412
S31500002F8018464FEAE0717B6E1A464FF0000302FBCB
S31500002F9001FE00FB03F67644A0FB020173181946F6
S31500002FA04FF000024FF00003121A63EB0103190100
S31500002FB0F961F96941EA1271F9611301BB61D7E957
S31500002FC00623121943EB0503C7E91223D7E9122397
S31500002FD0002A73F1000102DAFF3243F10003110AFD
S31500002FE03961396941EA036139611B127B61D7E9AD
S31500002FF0042313467B673B6F002B00DA0F331B114C
S315000030003B67D7E91423002A73F1000106DA40F67C
S31500003010FF704FF00001121843EB0103110BB9606A
S31500003020B96841EA0351B9601B13FB60D7E9022373
S3150000303013463B67B7F92A30C3F108035B003A6FC2
S3150000304002FB03F3002B00DA0F331B11FB67B7F902
S31500003050A830C3F108035B003A6F02FB03F3002BB1
S3150000306000DA0F331B11BB6700BF1BE13B6B9B8A6A
S31500003070A7F86A303B6BD3F810317B66B7F9AC30F2
S315000030804FF0784292FBF3F39A01B7F96A3092FB5C
S31500003090F3F33B67B7F96E30B7F96E2002FB03F224
S315000030A0B7F96C30B7F96C1001FB03F31344002B2E
S315000030B000DAFF331B1218464FEAE0713B6F1A46DF
S315000030C04FEAE27302FB01F500FB03F42C44A0FB7C
S315000030D00223E1180B46002A73F1000102DA0F32CF
S315000030E043F1000311093960396841EA0371396017
S315000030F01B117B60D7E90045B7F9AC30DA0F1344F2
S315000031005B109BB21AB2B7F96E10B7F96C300B446C
S31500003110134418464FEAE0717B6E1A464FF00003DF
S3150000312002FB01FE00FB03F67644A0FB02017318C6
S3150000313019464FF000024FF00003121A63EB010329
S315000031404FEA830B4BEA927B4FEA820A52465B4672
S31500003150121943EB0503C7E916233B6F1B113B67A7
S31500003160B7F92A30C3F108035B003A6F02FB03F399
S31500003170002B00DA0F331B11FB67B7F9A830C3F138
S3150000318008035B003A6F02FB03F3002B00DA0F33F0
S315000031901B11BB67BB6D7B6784E0B7F86E20B7F881
S315000031A06C3013439BB2002B1CD1B7F9AC30734A79
S315000031B092FBF3F33B67B7F9AC2013465B059B1A0A
S315000031C0DB027B67B7F9AC30C3F108035B003A6FEB
S315000031D002FB03F3002B00DA0F331B11BB67BB6F37
S315000031E0FB675FE0B7F9AC30654A92FBF3F33B67E8
S315000031F0B7F96E30B7F96E2002FB03F37B64B7F9BB
S315000032006C30B7F96C2002FB03F33B647A6C3B6CC1
S31500003210134418464FEAE0713B6F1A464FEAE273D1
S3150000322002FB01F500FB03F42C44A0FB0223E1188A
S315000032300B464FEAD22848EA43584FEAE329C7E942
S315000032400E89B96BB7F9AC30DA0F13445B109BB239
S315000032501AB2B7F96E00B7F96C3003441A44134634
S315000032601B059B1A1B030B447B673B6FDB103B67FD
S31500003270B7F92A30C3F108035B003A6F02FB03F388
S31500003280002B00DA0F331B11FB67B7F9A830C3F127
S3150000329008035B003A6F02FB03F3002B00DA0F33DF
S315000032A01B11BB67D7F8B430002B2CD1FB6A191D54
S315000032B07A6FD7F8B0301344786B1A46FFF76EFD75
S315000032C0FB6A0533786B1946FA6FFFF767FDFB6AF1
S315000032D01033786B1946BA6FFFF760FDFB6A03F18E
S315000032E00B023B6F5B00786B11461A46FFF756FDE3
S315000032F0FB6A03F111023B6F5B00786B11461A46BD
S31500003300FFF74CFD35E0FB6A191D7B6F5A42D7F873
S31500003310B030D31A786B1A46FFF740FDFB6A5A1D88
S31500003320FB6F5B42786B11461A46FFF737FDFB6A67
S3150000333003F11002BB6F5B42786B11461A46FFF72A
S315000033402DFDFB6A03F10B013A6F1346DB079B1A4F
S315000033505B00786B1A46FFF721FDFB6A03F111014A
S315000033603A6F1346DB079B1A5B00786B1A46FFF72A
S3150000337015FD8437BD46BDE8F08F00BF0000F8FF9D
S315000033800000C0FF80B485B000AF786039607B680C
S315000033901B690F4A1A607B681B693A685A607B682A
S315000033A01B690433FB607B689B68FA68DA607B689C
S315000033B01B6903F108027B681A617B6800229A6127
S315000033C0FB6818461437BD465DF8047B704700BF9E
S315000033D03280808080B584B000AF786039607B68C9
S315000033E09B69FB607B681B69BB60FB68032B6DD820
S315000033F001A252F823F000BF093400001F34000078
S3150000340059340000933400003B681B0243F0FF026E
S31500003410BB681A60BB681A1D7B681A6157E0BB68F7
S315000034201B68DAB2BB681A60BB681B6843F080236E
S3150000343043F40003BA6813603B681B0243F0FF03C2
S315000034401946BA68FB689B0013445960BB6803F1D0
S315000034500C027B681A613AE0BB681B689AB2BB68CB
S315000034601A60BB681B6843F0004343F40003BA6864
S3150000347013603B681B0243F0FF031946BA68FB68FA
S315000034809B0013445960BB6803F110027B681A6104
S315000034901DE0BB681B6823F07F42BB681A60BB68EF
S315000034A01B6843F00042BB681A603B681B0243F08E
S315000034B0FF031946BA68FB689B00134459607B6892
S315000034C01B6903F114027B681A6100E000BF7B6888
S315000034D000229A617B68DB695A1E7B68DA613B6869
S315000034E003F00103002B06D17B68DB69012B02D8B0
S315000034F0786800F02DFA1037BD4680BD80B483B0E1
S3150000350000AF786039603B68DAB27B6883F8C62121
S315000035103B6818460C37BD465DF8047B704700BF14
S3150000352080B584B000AF786039607B689B69FB60CA
S31500003530142005F041F9B860BB68002B01D10023C7
S315000035405FE0BB683A689A60BB680022DA607B6815
S315000035509B6E03F00103002B0CD13A6813469B00C7
S3150000356013449B007868194605F0A6F90246BB6825
S315000035705A600AE03A6813469B0013449B001846BB
S3150000358005F01AF90246BB685A60BB685B68002BF7
S3150000359004D1B86805F01CF9002332E0BB680022AC
S315000035A01A617B689B6E03F00103002B25D17B68B3
S315000035B0D3F8843003F01003002B09D0BB685B6896
S315000035C0F86819460AF0C2F90246BB681A6114E0A7
S315000035D07B68D3F8843003F00203002B0DD0BB6860
S315000035E09A6813469B0013449B00F86804211A4608
S315000035F00AF086F90246BB681A61BB6800221A60A7
S31500003600BB6818461037BD4680BD00BF80B584B084
S3150000361000AF786039607B689B69FB602BE03B6894
S315000036201B68BB607B689B6E03F00103002B06D111
S315000036303B685B687868194605F070F904E03B68FA
S315000036405B68184605F0C4F83B681B69002B0DD073
S315000036507B68D3F8843003F00203002B06D03B6866
S315000036601B69F86804211A460AF058F9386805F00B
S31500003670AFF8BB683B603B68002BD0D11037BD4626
S3150000368080BD00BF80B584B000AF78607B689B6862
S315000036901B68FB60FB68002B15D17B681A687B688A
S315000036A01B6A10461946FFF73BFFF860FB68002BC4
S315000036B005D17B681B68152283F8C72111E07B685A
S315000036C09B68FA681A60FB680022DA60FB685A6831
S315000036D07B681A61FB689A687B68DA617B68FA68BE
S315000036E09A601037BD4680BD90B589B000AFF860CE
S315000036F0B9607A60BB68FA681A60BB6800225A61D2
S31500003700FB68DB6F002B71D0FB68DB6F7B617B692D
S315000037101A68BB685A60202005F04EF80246BB685E
S315000037205A61BB685B69002B01D10023BEE0BB6810
S315000037305B693B617B699B689B00184605F03CF81A
S3150000374002463B691A603B691B68002B01D10023C6
S31500003750ACE07B699A683B695A607B695B68FA688A
S31500003760D2F8882002FB03F23B699A607B695A68AB
S315000037703B695A610023BB6109E03B691A68BB6972
S315000037809B00134400221A60BB690133BB613B698D
S315000037905A68BB699A42F0D83B691A683B69DA6095
S315000037A03B691C68FB6899693B699A6813469B00EC
S315000037B013449B00084604211A460AF0A1F8034662
S315000037C023603B691B681B68002B01D100236DE059
S315000037D03B691B681A683B691A613B695A683B6911
S315000037E0DA613B695A693B699A6106E0F86879686B
S315000037F0FFF796FE0246BB685A60BB685A68BB680C
S31500003800DA60BB685B68002B01D100234EE0BB6821
S315000038105A68BB689A60BB685B685A68BB681A617D
S31500003820BB685B689A68BB68DA61BB6800229A610C
S31500003830BB6800229A62BB680022DA62BB6810226B
S315000038409A86402004F0B8FF0246BB681A63BB683C
S315000038501B6B002B01D1002328E0BB685B69002BA2
S3150000386005D0BB685B691B681B68FB6114E0FB68DD
S31500003870D3F8843003F01203002B09D0BB685B68D1
S315000038801B69002B04D0BB685B681B69FB6103E006
S31500003890BB685B685B68FB61F868B96800F094FE1A
S315000038A0F868B968FA6900F0B1FE012318462437B2
S315000038B0BD4690BD80B584B000AF78607B685B691B
S315000038C0002B30D07B681B689B69BB600023FB60C4
S315000038D017E07B685B691A68FB689B0013441B68EA
S315000038E0002B0BD07B685B691A68FB689B0013444E
S315000038F01B68B86804211A460AF010F8FB68013301
S31500003900FB607B685B695A68FB689A42E1D87B6812
S315000039105B691B68184604F05BFF7B685B691846A9
S3150000392004F056FF07E07B681A687B685B68104600
S315000039301946FFF76BFE7B681B6B002B04D07B6878
S315000039401B6B184604F044FF00BF1037BD4680BD10
S31500003950B0B58EB002AF78607B685B69BB62BB6A4C
S31500003960002B23D178680021FFF70CFD7862786878
S315000039700321FFF72FFD7868FFF784FE7B681B683D
S3150000398093F8C731002B0AD07B681B69A3F10C02A0
S315000039907B681A6178680321FFF71CFDE5E07B6808
S315000039A09B685B681A467B6A1A60DEE07B68DB69A7
S315000039B0002B04D0BB6A9B69012B40F0D6807B6844
S315000039C01B689B693B62BB6A9B69012B4BD97B6871
S315000039D09B68FB61FB695968FB699A6813469B0003
S315000039E013449B000B44BB617B681B69FB62BB6A8B
S315000039F01969FB699A6813469B0013449B000B44A4
S31500003A007B61FB69DB68002B06D0FB69DB687A69A2
S31500003A101A60FB690022DA6006E0FB6A4FF080322A
S31500003A201A60FB6A0433FB62FA6ABB699A42F4D3F2
S31500003A30BB6A1969FB695C68FB699A6813469B0057
S31500003A4013449B001D4610230093386A22462B46DA
S31500003A5009F094FFBB6A7A691A61BB6A9B695A1EB0
S31500003A60BB6A9A6177E0BB6ADB69012B66D97B6822
S31500003A709B683B61BB6ADB680433FB60BB6ADB693E
S31500003A805A1EBB6ADA61FB681B68002B16D1BB6A3B
S31500003A909A6813469B0013449B00386A04211A4611
S31500003AA009F02EFF0246FB681A60FB681B68002BB4
S31500003AB004D17B681B68012283F8C721FB681B6859
S31500003AC0002B12D03B69DB68002B08D03B69DB6812
S31500003AD0FA6812681A603B690022DA6005E0FB6842
S31500003AE01B6878681946FFF74DFC78680321FFF7D5
S31500003AF071FCBB6A19697B689B685C687B689B681C
S31500003B009A6813469B0013449B001D46102300939E
S31500003B10386A22462B4609F031FFFB681B68002BEA
S31500003B200BD0BB6AFA68DA60FB681A68BB6A1A616E
S31500003B30BB6A5A69BB6A9A610DE00CE0BB6ADB6935
S31500003B40012B08D1BB6A9B69012B04D17B681B68DA
S31500003B50152283F8C7217868FFF794FD7B681B68F8
S31500003B6093F8C731002B00D000BF3037BD46B0BD3B
S31500003B7080B485B000AF78607B689B69FB607B682A
S31500003B801B69BB60FB68032B42D801A252F823F0E5
S31500003B90253C0000A13B0000C73B0000ED3B0000B8
S31500003BA0BB681B68DAB2BB681A60BB681B6843F067
S31500003BB0802343F40003BA681360BB6803F108026C
S31500003BC07B681A6125E0BB681B689AB2BB681A60FD
S31500003BD0BB681B6843F0004343F40003BA681360F4
S31500003BE0BB6803F10C027B681A6112E0BB681B68B4
S31500003BF023F07F42BB681A60BB681B6843F0004233
S31500003C00BB681A60BB6803F110027B681A6100E0AA
S31500003C1000BF7B6800229A617B68DB695A1E7B685D
S31500003C20DA6100E000BF1437BD465DF8047B7047DB
S31500003C3080B485B000AF78607B681B688C33BB604E
S31500003C407B681B689B6E03F02003002B0ED10023BC
S31500003C50FB6008E0BA68FB681344E83300221A7177
S31500003C60FB680133FB60FB683A2BF3DD7B685A681F
S31500003C707B689A607B685A687B68DA607B685B69F8
S31500003C80002B18D07B685B697A6852691268DA6023
S31500003C907B685B697A685269126812681A617B6888
S31500003CA05B697A6852695268DA617B685B697A682F
S31500003CB0526952699A617B685B685A687B681A61C7
S31500003CC07B685B689A687B68DA617B6800229A6128
S31500003CD07B680022DA621437BD465DF8047B7047C4
S31500003CE0B0B588B002AFF860B9607A6000237B6136
S31500003CF0BB681B68184600F0F1F9B8680321FFF7A6
S31500003D0069FBFB68DB6F002B2BD1BB689B681B68CC
S31500003D10002B05D0BB689B6A5A1CBB689A6202E0FE
S31500003D20BB6800229A62BB689B6A3C2B19D1BB68B0
S31500003D309B683B6102E03B691B683B613B691B6812
S31500003D401B68002BF7D1BB681A683B691B681046D5
S31500003D501946FFF75BFC3B6900221A60BB6800222C
S31500003D609A62BB685B69002B1FD07B68002B35D03D
S31500003D70BB681B68184600F027FFBB685B691969BA
S31500003D80BB689B685C68BB689B689A68BB68DB69B4
S31500003D90D21A13469B0013449B001D460023009332
S31500003DA022462B4609F0EAFD18E0FB68D3F884307A
S31500003DB003F00203002B03D0B86800F025FB0DE0EA
S31500003DC0FB68D3F8843003F01003002B03D0B868E7
S31500003DD000F0AEFB02E0B86800F06CFB7B68002BDD
S31500003DE006D0B868FFF724FFBB6800225A6226E0B7
S31500003DF0BB680022DA61B868FFF7AAFDBB689A685B
S31500003E00BB68DA60BB685B69002B04D0BB685B6982
S31500003E101B697B6113E0FB68D3F8843003F012035F
S31500003E20002B09D0BB689B681B69002B04D0BB68BC
S31500003E309B681B697B6102E0BB681B697B617B69D0
S31500003E4018461837BD46B0BD80B58AB000AF786059
S31500003E50396000237B627B689B69FB6100233B62C0
S31500003E603B681B68BB61BB6903F08033002B00F025
S31500003E70BF80BB69B3F1803F03D13B6804333B602D
S31500003E80FBE0BB6903F40043002B19D0BB69DBB22E
S31500003E90322B01D17B6AF1E0BB69DBB27B613B6807
S31500003EA05B68F86979691A4602F06AF97B69202B22
S31500003EB002D1F86902F074F93B6808333B60DCE034
S31500003EC0BB6903F40003002B3ED0BB69DBB2FF2BBA
S31500003ED011D1BB691B0ADBB27B627B6A022B08D15C
S31500003EE03B6804333B60F86902F05AF901233B62F0
S31500003EF001E07B6AC2E03B6A002B40F0BE80BB69F2
S31500003F00DBB27B61BB691B0ADBB23B613B685B686A
S31500003F10F86979691A4602F033F97B69202B02D1D8
S31500003F20F86902F03DF93B689B68F86939691A46F9
S31500003F3002F026F93B69202B02D1F86902F030F92C
S31500003F403B680C333B6098E0BB69002B35DABB69F4
S31500003F50DBB27B61BB691B0ADBB23B61BB691B0C35
S31500003F60DBB2FB603B685B68F86979691A4602F068
S31500003F7007F97B69202B02D1F86902F011F93B6839
S31500003F809B68F86939691A4602F0FAF83B69202BF2
S31500003F9002D1F86902F004F93B68DB68F869F96850
S31500003FA01A4602F0EDF8FB68202B02D1F86902F000
S31500003FB0F7F83B6810333B605FE0BB69DBB2FF2B71
S31500003FC012D1BB691B0ADBB27B627B6A022B02D071
S31500003FD07B6A042B06D13B6804333B60F86902F028
S31500003FE0DFF84AE07B6A49E03B6804333B6035E72B
S31500003FF0BB69DBB27B61BB691B0ADBB23B61BB6998
S315000040001B0CDBB2FB60BB691B0EBB603B685B68CD
S31500004010F86979691A4602F0B3F87B69202B02D158
S31500004020F86902F0BDF83B689B68F86939691A4679
S3150000403002F0A6F83B69202B02D1F86902F0B0F82D
S315000040403B68DB68F869F9681A4602F099F8FB687C
S31500004050202B02D1F86902F0A3F83B681B69F869C6
S31500004060B9681A4602F08CF8BB68202B02D1F869B1
S3150000407002F096F83B6814333B60EFE618462837A3
S31500004080BD4680BD80B582B000AF7860786800F02C
S3150000409025F87B68DB6818460421FFF79BF97868EA
S315000040A00021FFF72BFA034618460837BD4680BDA8
S315000040B080B582B000AF7860786800F00FF87B6852
S315000040C0DB6818460221FFF785F978680021FFF7BB
S315000040D015FA034618460837BD4680BD80B594B02C
S315000040E000AF78607B687B637B68DB683B637B6BD8
S315000040F0D3F8B431FB647B6BD3F8B8311A467B6BCB
S31500004100D3F8B431D31ADB103B643B6B1B688C339A
S31500004110FB62FB6ABB62FB6AEC337B627B689B6E6D
S3150000412003F02003002B7DD13B6B9B69FB633B6B4C
S315000041301B69BB6400237B6464E00023BB63FB6CE8
S315000041401B683B62FB6C5B68FB61FB6C0833FB64C2
S315000041508D4A3B6A13441B78002B1BD07A6A3B6A54
S3150000416013441B78002B0AD03B6A9B00BA6A13449F
S315000041701A68FB699A4202D10123BB630AE07A6A94
S315000041803B6A134401221A703B6A9B00BA6A1344C5
S31500004190FA691A60BB6B002B31D13B6AD9B2BA6C93
S315000041A0FB6B13440A461A70BA6CFB6B9B001344F4
S315000041B0FA695A60FB6B013303F00303FB633B6B45
S315000041C0DB6A5A1C3B6BDA62FB6B002B17D13B6B2D
S315000041D01B6903F114023B6B1A613B6BDB695A1EC8
S315000041E03B6BDA613B6BDB69012B05D83B6BFA6BEA
S315000041F09A61386BFFF7ACFB3B6B1B69BB647B6C4E
S3150000420001337B647A6C3B6C9A4205D23B6B1B682C
S3150000421093F8C731002B90D03B6BFA6B9A61002361
S315000042203B64E4E03B6BDA6A3B6C1A443B6BDA6254
S315000042303B6B9B69FB633B6B1B6893F8C731002B99
S3150000424040F0D580FB6B002B3FD03B6B1B69BB64FA
S315000042501DE0FB6C1B68BB61FB6C5B687B61FB6CE8
S315000042600833FB643B6C013B3B64BB69D9B2BA6C57
S31500004270FB6B13440A461A70BA6CFB6B9B00134423
S315000042807A695A60FB6B013303F00303FB633B6CF3
S31500004290002B02D0FB6B002BDBD1FB6B002B14D168
S315000042A03B6BFA6B9A613B6B1B6903F114023B6B28
S315000042B01A613B6BDB695A1E3B6BDA613B6BDB6950
S315000042C0012B02D8386BFFF743FBFB6B002B40F04A
S315000042D08E8000237B6444E03B6B1B69BB64FB6CF4
S315000042E01B68DAB2BB6C1A70FB6C08331B68DAB257
S315000042F0BB6C5A70FB6C10331B68DAB2BB6C9A70DD
S31500004300FB6C18331B68DAB2BB6CDA70FB6C5A684C
S31500004310BB6C5A60FB6C08335A68BB6C9A60FB6CCA
S3150000432010335A68BB6CDA60FB6C18335A68BB6C86
S315000043301A613B6B1B6903F114023B6B1A613B6B01
S31500004340DB695A1E3B6BDA613B6BDB69012B02D8DA
S31500004350386BFFF7FDFAFB6C2033FB647B6C013393
S315000043607B643B6C9A087B6C9A4205D93B6B1B6855
S3150000437093F8C731002BAFD03B6C03F003033B64CB
S3150000438000237B6429E000BF54E90300FB6C1B6833
S315000043903B61FB6C5B68FB60FB6C0833FB643B6B4F
S315000043A09B69FB633B6B1B69BB643B69D9B2BA6C07
S315000043B0FB6B13440A461A70BA6CFB6B9B001344E2
S315000043C0FA685A60FB6B013303F00303FB633B6B34
S315000043D0FA6B9A617B6C01337B647A6C3B6C9A4214
S315000043E005D23B6B1B6893F8C731002BCED07B6B95
S315000043F0D3F8B4217B6BC3F8B8217B6B4022C3F89A
S31500004400BC215037BD4680BDB0B588B002AF7860DC
S315000044107B681B689B693B617B68DB687B617B68AB
S315000044209B68FB607B681B689B6E03F00103002B97
S3150000443000D03CE022E07B691B68002B09D07B6939
S31500004440DB68002B05D07B69DB687A691268126924
S315000044501A607B6919697B695C687B699A6813468F
S315000044609B0013449B001D46002300933869224697
S315000044702B4609F083FA7B691B687B617A69FB68C6
S315000044809A42D8D17B6919697B695C687B699A68AD
S315000044907B68DB69D21A13469B0013449B001D46BA
S315000044A000230093386922462B4609F067FA18372D
S315000044B0BD46B0BD90B587B000AF78607B681B681D
S315000044C09B693B617B68DB687B617B689B68FB6003
S315000044D07B681B689B6E03F00103002B00D024E071
S315000044E00FE07B695C687B699A6813469B001344FE
S315000044F09B0038690421224609F052FA7B691B6841
S315000045007B617A69FB689A42EBD17B695C687B695F
S315000045109A687B68DB69D21A13469B0013449B009A
S3150000452038690421224609F03BFA1C37BD4690BD86
S3150000453090B587B000AF78607B681B689B693B616C
S315000045407B68DB687B617B689B68FB607B681B68BC
S315000045509B6E03F00103002B00D032E01DE07B6967
S315000045601B68002B09D07B69DB68002B05D07B69B3
S31500004570DB687A69126812691A607B691C697B6953
S315000045809A6813469B0013449B003869042122460F
S3150000459009F006FA7B691B687B617A69FB689A42B7
S315000045A0DDD17B691C697B699A687B68DB69D21AF5
S315000045B013469B0013449B0038690421224609F0E8
S315000045C0EFF91C37BD4690BD80B485B000AF78606A
S315000045D039603B681B6BBB600023FB6008E0FB682F
S315000045E09B00BA68134400221A60FB680133FB6023
S315000045F03B689B8E1AB2FB689A42F0DC3B6800224D
S31500004600DA861437BD465DF8047B704780B588B0FE
S3150000461000AFF860B9607A60BB681B6BBB61BB68B2
S31500004620DB8E1BB27B61BB689B8E1BB25A1E7B69FD
S315000046309A422ADCBB689B8E9BB210339BB29AB21D
S31500004640BB689A86BB689B8E1BB29A00BB681B6BC5
S3150000465010461946012204F0C5F80246BB681A63E3
S31500004660BB681B6BBB617B69FB6108E0FB699B0058
S31500004670BA69134400221A60FB690133FB61BB6807
S315000046809B8E1AB2FB699A42F0DC7B699B00BA6981
S3150000469013447A681A607B699BB201339BB29AB263
S315000046A0BB68DA867B699B00BA69134418462037D3
S315000046B0BD4680BD80B483B000AF786039603B688A
S315000046C0DAB27B6883F8C6213B6818460C37BD46CC
S315000046D05DF8047B704700BF80B584B000AF78609A
S315000046E039603B6803F04003002B02D00023FB60D7
S315000046F003E0702004F060F8F86078680021FFF7A6
S31500004700D9FFFB6818461037BD4680BD80B584B01A
S3150000471000AF78604FF4EA7004F04EF8B860BB68FA
S31500004720002B00F0C580BB687A689A66BB680022D9
S3150000473083F8C621BB68002283F8C721BB68002224
S315000047409A61BB680022DA61BB6802229A64BB6880
S315000047500022DA64BB6800221A65BB684FF40012B7
S315000047605A65B868FDF74EFE0246BB681A62BB681A
S315000047701A6ABB685A62BB681A6ABB689A62BB68E7
S315000047801A6ABB68DA62B8687968FFF7A5FF02465D
S31500004790BB681A63BB6800225A63BB6800229A632F
S315000047A0BB68002283F8C421BB680022DA63BB68B9
S315000047B000221A64BB6800225A64BB6801225A664A
S315000047C0BB680022A3F86C20BB680022A3F86E2009
S315000047D0BB680022A3F87020BB680022A3F87220F1
S315000047E0BB680022A3F87420BB680022A3F87620D9
S315000047F0BB680022A3F87820BB6800221A61BB6858
S3150000480000225A61BB680022DA60BB6800229A6007
S31500004810BB6800225A60BB68CC22C3F88820BB68FC
S315000048200522DA657B6803F00403002B05D0BB681C
S31500004830DB6D23F00102BB68DA657B6803F00803D1
S31500004840002B05D0BB68DB6D23F00402BB68DA657C
S31500004850BB6800221A66BB680022DA670023FB6089
S3150000486010E0BA68FB6822339B00134400225A60AA
S31500004870BA68FB68134403F5B87300221A72FB6822
S315000048800133FB60FB683A2BEBDDBB680022C3F803
S315000048908020BB68002283F8C821BB68082283F801
S315000048A0C521064B1A68BB681A60044ABB681360C8
S315000048B0BB6818461037BD4680BD00BF9C05FE1F6D
S315000048C080B584B000AF78607B689B69002B04D00C
S315000048D0786800F013F9F86001E00023FB60214BD3
S315000048E0BB6002E0BB681B68BB60BB68002B04D0E2
S315000048F0BB681A687B689A42F4D1BB68002B01D169
S3150000490002232AE07B681A68BB681A607B6800226B
S315000049101A6205E07B68DB6978681946FDF7E4FEF4
S315000049207B68DB69002BF5D17B68DB6F002B04D03D
S315000049307B68DB6F184603F04BFF7B681B6B002B15
S3150000494004D07B681B6B184603F042FF7B6800228D
S315000049501A63786803F03CFFFB6818461037BD46BB
S3150000496080BD00BF9C05FE1F90B587B000AF786084
S3150000497039607B683B617868396801F0ABFB0246B9
S315000049803B699A613B699B69002B05D178680521D3
S31500004990FFF790FE0346AAE000237B6109E03A692F
S315000049A07B69134403F5B87300221A727B690133DD
S315000049B07B617B693A2BF2DD3B69DB6F002B1DD0F7
S315000049C03B69DB6FFB603B69D3F888307868194632
S315000049D0FEF7A6FD0246FB681A60FB681C683B6989
S315000049E0D3F8883078681946FEF79AFD03462360A7
S315000049F0FB681B681B68FA6812681A603B69D3F883
S31500004A0088203B69D3F88830786811461A4604F046
S31500004A10C3FB02463B691A613B69D3F888203B69B0
S31500004A20D3F88830786811461A4604F0B5FB02467A
S31500004A303B695A613B691B69002B03D03B695B6983
S31500004A40002B05D178680121FFF734FE01234EE0E3
S31500004A503B691A693B69DA603B691B691A463B691F
S31500004A609A603B695B691A463B695A603B6900225A
S31500004A705A634FF4007003F09FFE02463B69C3F889
S31500004A80B4213B69D3F8B4213B69C3F8B8213B692B
S31500004A904022C3F8BC213B69174AC3F8C0213B69D1
S31500004AA0002283F8C9213B699B6918460A2108F050
S31500004AB085FD0346002B15D03B699B6918460A21E4
S31500004AC00022FF2308F036FD3B699B6918460A2140
S31500004AD0002208F04FFD0346FF2B03D13B6901225C
S31500004AE083F8C92178680021FFF7E4FD03461846DC
S31500004AF01C37BD4690BD00BFDD40000080B586B0C6
S31500004B0000AF78607B689B69002B53D07B68DB6FB6
S31500004B10002B0CD07B68DB6F1B681B6800221A60B9
S31500004B207B68DB6F1B6878681946FEF76FFD7B684C
S31500004B301B697B617B685B693B617B6800221A614C
S31500004B407B6800225A617B69002B03D078687969FB
S31500004B5004F086FB3B69002B03D07868396904F0C2
S31500004B607FFB7B680022DA607B6800229A607B68A4
S31500004B7000225A607B6800225A637B68D3F8B431FE
S31500004B80184603F025FE7B680022C3F8B4217B6833
S31500004B900022C3F8B8217B689B69184601F0DEFA4B
S31500004BA0F8607B6800229A617868F968FFF782FDF1
S31500004BB0034604E078680021FFF77CFD03461846AB
S31500004BC01837BD4680BD00BF80B483B000AF7860A3
S31500004BD07B689B6918460C37BD465DF8047B7047B9
S31500004BE080B584B000AF786039607B68002B01D156
S31500004BF0022338E07B685B6EFB60FA683B689A428A
S31500004C0005D178680021FFF755FD03462BE0FA68C9
S31500004C103B689A4208D0FB68082B05D03B68082BF6
S31500004C2002D0786800F024F87B683A685A667B6898
S31500004C305B6A7A68526A92F80E2142F00102D2B299
S31500004C4083F80E21FB68082B02D1786804F02EFD4C
S31500004C503B68082B02D1786804F0E2FC78680021F2
S31500004C60FFF728FD034618461037BD4680BD00BF36
S31500004C7080B582B000AF7860786804F045FD7B6847
S31500004C805B6A7A68526A92F80E2142F00102D2B249
S31500004C9083F80E2178680021FFF70CFD03461846BD
S31500004CA00837BD4680BD00BF80B582B000AF7860D2
S31500004CB00B467B807B687A88A3F86C207868002195
S31500004CC0FFF7F8FC034618460837BD4680BD00BF0F
S31500004CD080B582B000AF78607B68002B08D078681A
S31500004CE001F070FA78680021FFF7E4FC034600E063
S31500004CF0022318460837BD4680BD00BF80B584B084
S31500004D0000AF78607B68DB68FB607868FFF7E6F9E0
S31500004D10FB681A69FB685B685B689A4201D00123ED
S31500004D200FE0FB685B69002B0AD0FB685B691A69B8
S31500004D30FB685B691B681B689A4201D1012300E08E
S31500004D40002318461037BD4680BD00BF90B58DB014
S31500004D5000AFF8607B600B467B8113463B817B6C22
S31500004D6003F00103002B02D00023FB6203E0BB6CBF
S31500004D70D3F81031FB627B6C03F00203002B02D0E8
S31500004D800023BB6203E0BB6CD3F81031BB62BB6C83
S31500004D90D3F810311B011C467B687A6802FB03F2CC
S31500004DA03B6C396C01FB03F31344184603F0D8FB44
S31500004DB0034694FBF3F37B62FB6C002B02D0FB6C87
S31500004DC07A6A1A603B6C5B427A6A02FB03F31B1138
S31500004DD03B627B687A6A02FB03F31B11FB61B7F93E
S31500004DE00A305B423A6A02FB03F2B7F90830F96906
S31500004DF001FB03F3D31A1B11BB61B7F90A305B42FF
S31500004E00FA6902FB03F2B7F90830396A01FB03F3CA
S31500004E1013441B117B61B7F90A207B681344FA69B6
S31500004E2002FB03F2B7F908103B6C0B44396A01FB2D
S31500004E3003F3D31A1B113B61BB6CD3F810315B082B
S31500004E401A46BB691A44FB681A60FB683A6A5A60DC
S31500004E50FB68FA699A60FB680C337969FA6A0A4456
S31500004E601A60FB680C33FA695A60FB680C333A6ABD
S31500004E7052429A60FB6818333969BA6A0A441A6062
S31500004E80FB681833FA6952425A60FB6818333A6A6B
S31500004E909A603437BD4690BD80B58CB000AFF860DF
S31500004EA07B600B467B8113463B81FB6B03F0010362
S31500004EB0002B02D00023FB6202E04FF48033FB623A
S31500004EC0FB6B03F00203002B02D00023BB6202E05F
S31500004ED04FF48033BB627B687A6802FB03F2BB6BDC
S31500004EE0B96B01FB03F31344184603F039FB024682
S31500004EF04FF4801393FBF2F37B623B6C002B02D0E2
S31500004F003B6C7A6A1A60BB6B5B427A6A02FB03F3FC
S31500004F101B113B627B687A6A02FB03F31B11FB6180
S31500004F20B7F90A305B423A6A02FB03F2B7F9083076
S31500004F30F96901FB03F3D31A1B11BB61B7F90A30F8
S31500004F405B42FA6902FB03F2B7F90830396A01FBE2
S31500004F5003F313441B117B61B7F90A207B681344E2
S31500004F60FA6902FB03F2B7F90810BB6B0B44396A06
S31500004F7001FB03F3D31A1B113B61BB6903F5004226
S31500004F80FB681A60FB683A6A5A60FB68FA699A60BD
S31500004F90FB680C337969FA6A0A441A60FB680C33B9
S31500004FA0FA695A60FB680C333A6A52429A60FB68A7
S31500004FB018333969BA6A0A441A60FB681833FA6901
S31500004FC052425A60FB6818333A6A9A603037BD46D7
S31500004FD080BD00BF80B48DB000AFF8607B600B462B
S31500004FE07B8113463B81FB6B03F00103002B02D050
S31500004FF00023BB6102E04FF48033BB61FB6B03F01F
S315000050000203002B02D000237B6102E04FF48033C1
S315000050107B617B68002B80F2F080BB6B002B77DA1C
S315000050207A68BB6B9A4238DABB6B1A047B6892FBD0
S31500005030F3F33B61B7F908301A03B7F90A30396957
S3150000504001FB03F31B11D31A7B62B7F90A301A036B
S31500005050B7F90830396901FB03F31B1113443B62AE
S31500005060B7F90A207B6813441B035A42B7F90810A4
S31500005070BB6B0B44396901FB03F31B11D31AFB61AC
S315000050803B69FB629B4BBB623B6C002B00F0A8812B
S315000050907B685A423B6C1A60A2E17B681A04BB6BC0
S315000050A05B4292FBF3F33B61B7F90A305B421A03AA
S315000050B0B7F90830396901FB03F31B11D31A7B6278
S315000050C0B7F908301A03B7F90A30396901FB03F357
S315000050D01B11D31A3B62B7F90A207B6813443A695D
S315000050E002FB03F31A11B7F90810BB6B0B441B0341
S315000050F0D31AFB614FF48033FB623B69BB623B6CA6
S31500005100002B00F06D81BB6B5A423B6C1A6067E165
S315000051107B685A42BB6B9A4237DDBB6B1A047B68CD
S3150000512092FBF3F33B61B7F908301A03B7F90A307B
S31500005130396901FB03F31B11D31A7B62B7F90A30F5
S315000051401A03B7F90830396901FB03F31B1113443D
S315000051503B62B7F90A207B6813441B035A42B7F92E
S315000051600810BB6B0B44396901FB03F31B11D31AFF
S31500005170FB613B69FB625F4BBB623B6C002B00F043
S315000051802F813B6C7A681A602AE17B681A04BB6B34
S3150000519092FBF3F33B61B7F90A301A03B7F908300B
S315000051A0396901FB03F31B11D31A7B62B7F9083087
S315000051B05B421A03B7F90A30396901FB03F31B1185
S315000051C0D31A3B62B7F90A207B6813443A6902FB9B
S315000051D003F31A11B7F90810BB6B0B441B031344F6
S315000051E0FB61444BFB623B69BB623B6C002B00F0EE
S315000051F0F7803B6CBA6B1A60F2E0BB6B002B7BDA74
S31500005200BB6B5A427B689A423ADABB6B1A047B68DC
S315000052105B4292FBF3F33B61B7F908305B421A033A
S31500005220B7F90A30396901FB03F31B11D31A7B6204
S31500005230B7F90A305B421A03B7F90830396901FB3E
S3150000524003F31B1113443B62B7F90A207B6813442E
S315000052501A03B7F90810BB6B0B44396901FB03F35A
S315000052601B11D31AFB613B69FB624FF48033BB62AF
S315000052703B6C002B00F0B4803B6C7A681A60AFE0A0
S315000052807B681A04BB6B5B4292FBF3F33B61B7F995
S315000052900A305B421A03B7F90830396901FB03F398
S315000052A01B11D31A7B62B7F908301A03B7F90A3013
S315000052B0396901FB03F31B11D31A3B62B7F90A20C4
S315000052C07B6813443A6902FB03F31A11B7F9081015
S315000052D0BB6B0B441B03D31AFB614FF48033FB6299
S315000052E03B69BB623B6C002B7AD0BB6B5A423B6C72
S315000052F01A6075E00000FFFF7A68BB6B9A4239DDE1
S31500005300BB6B1A047B685B4292FBF3F33B61B7F914
S3150000531008305B421A03B7F90A30396901FB03F317
S315000053201B11D31A7B62B7F90A305B421A03B7F92D
S315000053300830396901FB03F31B1113443B62B7F9CB
S315000053400A207B6813441A03B7F90810BB6B0B4499
S31500005350396901FB03F31B11D31AFB613B69FB623D
S315000053604FF48033BB623B6C002B39D03B6C7A68C0
S315000053701A6035E07B681A04BB6B92FBF3F33B6162
S31500005380B7F90A301A03B7F90830396901FB03F394
S315000053901B11D31A7B62B7F908305B421A03B7F9BF
S315000053A00A30396901FB03F31B11D31A3B62B7F9C3
S315000053B00A207B6813443A6902FB03F31A11B7F912
S315000053C00810BB6B0B441B031344FB611B4BFB62B6
S315000053D03B69BB623B6C002B02D03B6CBA6B1A601C
S315000053E07B6A03F50042FB681A60FB68FA6A5A603A
S315000053F0FB68BA6A9A60FB680C33396ABA690A4470
S315000054001A60FB680C33BA6A5A60FB680C33FA6A96
S3150000541052429A60FB681833F9697A690A441A603D
S31500005420FB681833BA6A52425A60FB681833FA6A44
S315000054309A603437BD465DF8047B70470000FFFF75
S3150000544080B489B000AFF8607B600B467B81134661
S315000054503B817B68002B71DABB6A002B3DDA7B68E7
S315000054609AB27B8913449BB27B81BB6A9AB23B8911
S3150000547013449BB23B817A68BB6A9A4217DD7B680C
S315000054801A04BB6A92FBF3F33B61B7F908303A6939
S3150000549002FB03F31A11B7F90A301B03D31AFB6197
S315000054A04FF48033BB613B695B427B61BBE0BB6A07
S315000054B01A047B6892FBF3F33B61B7F908301A03D1
S315000054C0B7F90A30396901FB03F31B11D31AFB61E3
S315000054D03B69BB615E4B7B61A5E07B685A42BB6A58
S315000054E09A4215DDBB6A1A047B6892FBF3F33B61B3
S315000054F0B7F908301A03B7F90A30396901FB03F323
S315000055001B11D31AFB613B69BB61514B7B618AE07E
S315000055107B681A04BB6A92FBF3F33B61B7F90A3066
S315000055201A03B7F90830396901FB03F31B11D31AC3
S31500005530FB61474BBB613B697B6174E0BB6A002B37
S3150000554040DA7B689AB27B8913449BB27B81BB6A43
S315000055509AB23B8913449BB23B81BB6A5A427B6831
S315000055609A4217DABB6A1A047B6892FBF3F33B6133
S31500005570B7F90A303A6902FB03F31A11B7F9083092
S315000055801B03D31AFB613B695B42BB614FF480335B
S315000055907B6148E07B681A04BB6A92FBF3F33B61CC
S315000055A0B7F908303A6902FB03F31A11B7F90A3062
S315000055B01B03D31AFB614FF48033BB613B695B422B
S315000055C07B6130E07A68BB6A9A4217DDBB6A1A04CF
S315000055D07B6892FBF3F33B61B7F90A303A6902FB49
S315000055E003F31A11B7F908301B03D31AFB613B69A1
S315000055F05B42BB614FF480337B6114E07B681A0425
S31500005600BB6A92FBF3F33B61B7F90A301A03B7F9A9
S315000056100830396901FB03F31B11D31AFB610C4BEC
S31500005620BB613B697B61FB6A002B02D0FB690133DE
S31500005630FB61FB68FA691A60FB68BA695A60FB6825
S315000056407A699A602437BD465DF8047B704700BFCF
S315000056500000FFFF2DE9B00F99B000AFF8637B6340
S315000056600B467B8713463B87D7F88430D3F8103137
S315000056703B657B6B002B80F21981D7F88030002BBD
S3150000568080F290807B6B9AB27B8F13449BB27B87B0
S31500005690D7F880309AB23B8F13449BB23B877A6B24
S315000056A0D7F880309A423EDD7B6B1A04D7F88030FB
S315000056B092FBF3F31A464FEAE273C7E91223B7F9EE
S315000056C03810D7E91223134603FB01F31A11B7F971
S315000056D03A301B03D31AFB653B6DBB653B6D184621
S315000056E04FEAE071D7E9122302FB01F500FB03F450
S315000056F02C44A0FB0223E1180B46C7E91023D7E987
S315000057001023110CB962B96A41EA0341B9621B144C
S31500005710FB62D7E90A23C7E91223D7E91223134606
S315000057205B427B65D2E1D7F880301A047B6B92FB33
S31500005730F3F31A464FEAE273C7E91223B7F9383092
S315000057401903B7F93A00D7E91223134603FB00F30E
S315000057501B11CB1AFB653B6D18464FEAE071D7E982
S31500005760122302FB01F500FB03F42C44A0FB0223E9
S31500005770E1180B46C7E91023D7E91023110C39624B
S31500005780396A41EA034139621B147B62D7E908236F
S31500005790C7E91223D7E912231346BB653B6D5B426B
S315000057A07B6593E17B6B5A42D7F880309A423EDDA7
S315000057B0D7F880301A047B6B92FBF3F31A464FEA54
S315000057C0E273C7E91223B7F938301903B7F93A007B
S315000057D0D7E91223134603FB00F31B11CB1AFB6513
S315000057E03B6D18464FEAE071D7E9122302FB01F53B
S315000057F000FB03F42C44A0FB0223E1180B46C7E987
S315000058001023D7E91023110CB961B96941EA0341A4
S31500005810B9611B14FB61D7E90623C7E91223D7E94F
S3150000582012231346BB653B6D5B427B654EE17B6B8A
