S01A000050726F796563746F496E7465677261646F722E73726563A6
S31500000000E021FE1FED420000B53D0000E942000080
S31500000010E9420000E9420000E94200000000000059
S31500000020000000000000000000000000E94200009F
S31500000030E942000000000000E9420000E942000039
S3150000004091160000FFFFFFFFFFFFFFFFFFFFFFFF0F
S31500000050FFFFFFFFFFFFFFFFFFFFFFFFFFFFFFFFAA
S31500000060FFFFFFFFFFFFFFFFFFFFFFFFFFFFFFFF9A
S31500000070FFFFFFFFFFFFFFFFFFFFFFFFFFFFFFFF8A
S31500000080FFFFFFFFFFFFFFFFFFFFFFFFFFFFFFFF7A
S31500000400FFFFFFFFFFFDFFFFFFFFFFFFFFFFFFFFF8
S31500000410FFFFFFFFFFFFFFFFFFFFFFFFFFFFFFFFE6
S31500000420FFFFFFFFFFFFFFFFFFFFFFFFFFFFFFFFD6
S31500000430FFFFFFFFFFFFFFFFFFFFFFFFFFFFFFFFC6
S31500000440FFFFFFFFFFFFFFFFFFFFFFFFFFFFFFFFB6
S31500000450FFFFFFFFFFFFFFFFFFFFFFFFFFFFFFFFA6
S31500000460FFFFFFFFFFFFFFFFFFFFFFFFFFFFFFFF96
S31500000470FFFFFFFFFFFFFFFFFFFFFFFFFFFFFFFF86
S31500000480FFFFFFFFFFFFFFFFFFFFFFFFFFFFFFFF76
S31500000490FFFFFFFFFFFFFFFFFFFFFFFFFFFFFFFF66
S315000004A0FFFFFFFFFFFFFFFFFFFFFFFFFFFFFFFF56
S315000004B0FFFFFFFFFFFFFFFFFFFFFFFFFFFFFFFF46
S315000004C0FFFFFFFFFFFFFFFFFFFFFFFFFFFFFFFF36
S315000004D0FFFFFFFFFFFFFFFFFFFFFFFFFFFFFFFF26
S315000004E0FFFFFFFFFFFFFFFFFFFFFFFFFFFFFFFF16
S315000004F0FFFFFFFFFFFFFFFFFFFFFFFFFFFFFFFF06
S315000005005801FE1FB6002B3020000000200001001D
S315000005102F0000002F0001000C0001001100000058
S31500000520300000003000010024000000240001001B
S315000005302400020024000300240004002400050017
S315000005401300000017000000230000002100000037
S31500000550210001000700000007000100070002005B
S315000005600700030007000400070005000700060057
S315000005700700070012000000440000000800000009
S315000005800B00000041000000400000004000010098
S3150000059004000000430000002B0000002B000A00AE
S315000005A02B000B002B000C002B000D002B00010074
S315000005B02B0002002B0003002B0004002B0005007B
S315000005C02B0006002B0007002B0008002B0009005B
S315000005D00600000006000A0006000B0006000C00DC
S315000005E006000D0006000E0006000F0006000100C2
S315000005F006000200060003000600040006000500CF
S3150000060006000600060007000600080006000900AE
S315000006101500000015000100150002003100000061
S315000006202A00000045000000100000000301000041
S3150000063003000000030001000F0000000D00000091
S315000006402D000000420000002C0000002C000100DC
S315000006502C0002002C0003003200000028000000DD
S31500000660180000001400000014000100140002002D
S315000006701400030014000400140005001400060012
S3150000068014000700140008001400090034000000DC
S3150000069034000100160000001600010035000000BD
S315000006A03600000036000100220000003300000082
S315000006B0330100002900000010B5054C237833B93A
S315000006C0044B13B10448AFF300800123237010BD1F
S315000006D0BC00FE1F00000000845D0000084B10B542
S315000006E01BB108480849AFF300800848036803B9FE
S315000006F010BD074B002BFBD0BDE81040184700BFCC
S3150000070000000000845D0000C000FE1F1400FE1FF4
S315000007100000000070B4104C2368020A9A4216D2F8
S315000007206568C0B200F11006012355F8225003FA9D
S3150000073006F62E420BD069B100EB0210A36853F8FF
S315000007402030C3F3400300200B7070BC70470320B9
S3150000075070BC70471846FBE78400FE1F084B1A68FA
S31500000760000A904201D30320704731B1DA68430191
S31500000770043200209B580B8070470120704700BF51
S315000007808400FE1F084B1A68000A904201D303201A
S31500000790704739B1DA684301043200209B581B0CBC
S315000007A00B807047012070478400FE1F144A1368AF
S315000007B0F0B4040A9C421DD25768C5B205F1100672
S315000007C0012357F8244003FA06F6264212D0A1B1B7
S315000007D0D468000A0434400103FA05F2005992B2C3
S315000007E002EA1040904213BF002000200B700870F0
S315000007F0F0BC70470320F0BC70471846FBE700BF0B
S315000008008400FE1F0C4B10B41C68000AA04200D2E4
S315000008101AB903205DF8044B7047DB685DF8044B9A
S31500000820083303EB401022EA0103114041EA034179
S3150000083041600020704700BF8400FE1F154BF0B4D6
S315000008401C68020AA2420AD25E68C7B207F1100506
S31500000850012456F8222004FA05F5154202D1032098
S31500000860F0BC70470129FAD8DB6800F47F4003F139
S31500000870080303EBD00008D04368BC4043EA0444B5
S31500000880240C240444600020EAE74468B9400C4381
S31500000890A4B2F7E78400FE1F40B10123062102221D
S315000008A001704370C370827000207047012070474A
S315000008B0012901D903207047114A1368F0B4040ACC
S315000008C09C4216D25768C5B205F11006012357F8A7
S315000008D0244003FA06F626420BD000F47F40AB40D4
S315000008E051B91B04D268C008083219438150002050
S315000008F000E00320F0BC704799B20023F2E700BF86
S315000009008400FE1F012901D9032070472C4BF0B546
S315000009101C68020AA2424ED25D68C0B200F11006FF
S31500000920012455F82250B4402C4244D000EB02106A
S315000009309C681D6954F8203000293ED043F004011C
S31500000940204E0E40EFF31087012383F310881E4BD1
S315000009501A8892B222B94FF0400EEA7085F803E089
S315000009601A88013292B21A8087F31088CF0354F89E
S31500000970202007D5154F22F480320F4044F820205E
S3150000098044F8207044F82060EFF31081012282F3CE
S3150000099010881A880C4892B21AB10288013A92B2AB
S315000009A002801B889BB213B98022EB70EA7081F338
S315000009B010880020F0BD0320F0BD23F00401BFE73E
S315000009C08400FE1FD5FC011FD800FE1FD5FC001FAA
S315000009D00AB9032070470B4B10B41C68000AA042EA
S315000009E003D303205DF8044B7047DB6822EA010459
S315000009F0400108330A4042EA0442C2505DF8044B03
S31500000A00002070478400FE1F0AB9032070470D4B73
S31500000A1070B41C68000AA04202D3032070BC704761
S31500000A204001DD682E582B5802EA01043443A4B273
S31500000A3061EA02021B0C22401B041A432A500020C2
S31500000A4070BC70478400FE1F2DE9F041002839D0A4
S31500000A5009681E4D002701EBC000B8464FF0010E95
S31500000A608C88002335F81320A24218D00133032BBB
S31500000A70F8D108318142F3D1FF43FFB2012003F0E0
S31500000A8003FC134A92F8BB3448EA030808EA07074E
S31500000A9082F8BB740120BDE8F04103F0C5BB0A68CB
S31500000AA002F0B852B2F1807F05D00EFA03F647EA9B
S31500000AB00602D7B2DAE70EFA03F248EA02085FFA4C
S31500000AC088F8D3E78046FF27D8E700BFF852000032
S31500000AD000E0014070B582B002AB002403F8044D7B
S31500000AE0054618460E4603F045F99DF80430DB0727
S31500000AF002D4062002B070BD202D02D9032002B018
S31500000B0070BD012EFAD8084B1A69137805D02B430D
S31500000B1003F0300320461370ECE703F0300323EABA
S31500000B20050520461570E5E78400FE1F002867D0FE
S31500000B302DE9F84F4368002B5FD00146804631F817
S31500000B40040BFFF781FFB8F80030002B52D02D4C74
S31500000B50DFF8B4E0A146002201204FF0400B4FF031
S31500000B60800AD8F80430DEF8107053F83260DEF8E8
S31500000B70085003EBC20399880B0AC9B201EB0313B1
S31500000B80EFF3108C80F31088218889B211B9F970BF
S31500000B9087F803B02188013189B221808CF310884F
S31500000BA016F4803F55F8231007D021F4803126F43F
S31500000BB0803C45F8231045F823C045F82360EFF341
S31500000BC0108180F3108823889BB22BB1B9F80030CE
S31500000BD0013B9BB2A9F8003023889BB213B9FB7086
S31500000BE087F803A081F310880132B8F8003092B27A
S31500000BF09342B6D80020BDE8F88F0120BDE8F88FF3
S31500000C0001207047D800FE1F8400FE1F002832D046
S31500000C104368002B2FD0F0B587B006AC002309211E
S31500000C200193164A04F8141D154ED768029305461B
S31500000C3003930493059302A92046B8474FF00A0C84
S31500000C40029ABDF80C308DF804C002A9F260204665
S31500000C50059A72603360B8470122029B8DF8052021
S31500000C6002A92046B360B847029B33612846FFF7C6
S31500000C705DFF07B0F0BD0120704700BFB453000010
S31500000C808400FE1F2DE9F041304C2268050A95428A
S31500000C9084B003460CD26268C6B20F464FF0010814
S31500000CA006F1100152F8252008FA01F1114203D18C
S31500000CB0032004B0BDE8F08104A902AA41F80C2D76
S31500000CC04046ADF80C300297ADF8008006EB0515EE
S31500000CD0FFF7BAFE2069A268EFF3108488F3108844
S31500000CE01B490B889BB213B94026C370C6700B888C
S31500000CF001339BB20B8084F31088FC0352F8253035
S31500000D0007D523F4803327F4803442F8253042F89F
S31500000D10254042F82570EFF31082012383F31088F3
S31500000D200B880B4C9BB25BB90B889BB213B9802125
S31500000D30C370C17082F31088002004B0BDE8F08152
S31500000D402388013B9BB22380EEE700BF8400FE1F91
S31500000D50D800FE1F38B183682BB1C168064A91429C
S31500000D6003D00720704701207047DA6A22F001029B
S31500000D70DA620020704700BF5450470038B18368DC
S31500000D802BB1C168064A914203D007207047012063
S31500000D907047DA6A42F00102DA620020704700BF4B
S31500000DA05450470040B139B183682BB1C068054A39
S31500000DB0904203D007207047012070479B6C0B6060
S31500000DC0002070475450470070B169B12DE9F041D9
S31500000DD0876882B057B1C2681B4B9A4218BF07207A
S31500000DE006D002B0BDE8F081012070470120F8E787
S31500000DF07B6E0E4602A900250133B36041F8045DFF
S31500000E00FA6A04461148C2F30268836903209847C8
S31500000E104FEA4808012303FA08F2019BB3FBF2F3F9
S31500000E2073603B6B03F001033370FB6A13F0010F31
S31500000E300CBF01232B463373237C03EB83035B0038
S31500000E40B6332846F381CCE754504700F8530000E8
S31500000E5020B1034B1B6803600020704701207047D8
S31500000E6028530000FFFFFFFF2DE9F04782B002ACD8
S31500000E70002544F8045D3C4D8946AF69824690469C
S31500000E80214603201E464C460025B847B8F1060FFA
S31500000E9034D8DFE808F00F374953575B04000021C8
S31500000EA04FF47A7202FB09F20B46019803F0F4FE46
S31500000EB004460D469AF81530012B07D000230A9AEE
S31500000EC000201370346002B0BDE8F0874FF6FF7063
S31500000ED00021A94208BFA0424FF00003EFD2A208AA
S31500000EE0AF0842EA8572B94203F1010308BF904296
S31500000EF014463D46DBB2E2D2052BF0D1032002B008
S31500000F00BDE8F087019816A3D3E90023A9FB0001E9
S31500000F1003F0C2FE04460D469AF81530012BD5D0D3
S31500000F204FF0FF300021D4E70198104A0023A9FBB7
S31500000F30000103F0B1FE04460D46EDE701984FF4BB
S31500000F407A72F3E7019CA9FB0445E5E72B464A467E
S31500000F500198002103F0A0FE04460D46AAE700BF53
S31500000F6000CA9A3B00000000F853000040420F0000
S31500000F70012A70B506461C462FD02AD3022A15D15F
S31500000F80A1FB0301194A0023002503F085FE012E6B
S31500000F900ED0A94208BFA04215D0002908BFB0F163
S31500000FA0FF3F10D08D4208BF84420ED2032070BD91
S31500000FB014F1FF3245F1FF33101A63EB01018D4244
S31500000FC008BF8442EED14FF0FF30049B186000202A
S31500000FD070BD084600250021D9E7A1FB0301642264
S31500000FE00023002503F058FED1E700BFA0860100CC
S31500000FF038B183682BB1214AC168914203D00720DA
S3150000100070470120704730B5DA6A22F00102DA62D1
S31500001010017D4AB2002A83B00DDB52092032012439
S31500001020174D01F01F0104FA01F145F82210BFF334
S315000010304F8FBFF36F8FDA8E22F48072DA869A8E24
S31500001040044622F4807202A800252B219A86019577
S31500001050237C00F8041DADF8063003F09DF894F9E2
S315000010601430657413F1210F04D0064A126852F841
S3150000107033301D600020E06003B030BD545047009F
S3150000108000E100E03C59000038B183682BB1104BF9
S31500001090C2689A4203D0072070470120704730B4D7
S315000010A0EFF31084012383F310888368DA6AD96A20
S315000010B0002021F00101D9629864DD6A02F0010185
S315000010C025F001020A43DA6284F3108830BC7047C7
S315000010D054504700002838D030B5856885B003469F
S315000010E0002D34D011B9032005B030BDC568194CA8
S315000010F0A54218BF0720F7D11C460DF10B030025AA
S31500001100009303AB03958DF80B50FFF7ADFE002857
S31500001110EAD1A368DA6AD96A21F00101D962D96AEB
S315000011209DF80B4021F0E06104F0070441EA0461F8
S31500001130D9620399013959669864D96A02F00102A5
S3150000114021F001010A43DA62CEE70120704701204F
S31500001150CAE700BF5450470040B3F0B5866885B073
S3150000116036B3012B02D9032005B0F0BDC568224C69
S31500001170A54218BF0720F7D104AF0446002047F860
S31500001180040D1D46736EA07D00970133FFF7F0FE38
S315000011900028E9D1039AA36862B9A5B1196B21F0B9
S315000011A0407141F0007110461963DDE70120704778
S315000011B00120D9E7511C14D0196B65B121F040719B
S315000011C019639A65D0E71A6B22F4403242F4003272
S315000011D028461A63C8E721F44031196328465A6540
S315000011E0C2E71A6B1DB142F040721A63BCE742F4C3
S315000011F0403228461A63B7E754504700002966D0A4
S31500001200002864D02DE9F041A84F8AB000230C468F
S315000012100546487C04932B21ADF812008DF810107A
S31500001220FA688DF80B300393069307930893099396
S3150000123004A806A99047064610B10AB0BDE8F08199
S315000012400AAA069942F8140D3B69A96004A806216A
S31500001250BDF81E809847BDF81E309DF814202A75EB
S315000012605B075CBF01236B750DF10B0348BF6E7501
S315000012706168227A0093284603ABFFF7F5FD002844
S31500001280DBD16369002B00F0618195F914202132CE
S3150000129029D0A2696A602B60637C2B742278E3698B
S315000012A0012A00F058811F789E781879A8750021C8
S315000012B0022AAF74EE74697406910AD004A802F08B
S315000012C037FF074688B108200AB0BDE8F081012043
S315000012D0704706AEE168227C039B0096FFF748FE46
S315000012E00028EBD0A9E70B20A7E7AE6804A802F018
S315000012F0BDFEF16A4FEAD8084FF0FF3321F0010135
S315000013004FF4254E012028F00102F162C6F800E0F4
S31500001310376177617761F76137627762B762F76243
S3150000132030637763B763F7633764B764F364336531
S315000013307365B3657366B366C6F88870C6F88C3095
S315000013408AB17764F3663367F3677367C6F88030EC
S31500001350B367C6F88430C6F89030C6F89430C6F83D
S315000013609830C6F8A070AE680698F36A9DF80B1020
S31500001370039A23F4E023F362336B43F002033363EF
S31500001380336B43F001033363336B23F002033363A0
S31500001390F36A01F0070123F0E06343EA0163013ACF
S315000013A00021F3627266B164E36933B11A78002AE8
S315000013B040F082809A78002A36D16369002B00F0CB
S315000013C0D480287D3A4AA37C126841B20029C0F233
S315000013D0B58001F160401B0100F56140DBB280F889
S315000013E0003352F8313095F914001D6002F074FE96
S315000013F02A7D53B2002B0DDB5B099B0003F1604392
S3150000140003F5614302F01F02012101FA02F2C3F85B
S3150000141080211A60E37C1BB1F36A43F00103F36297
S31500001420244BEB60002008E7AA68D978938E2778CA
S3150000143001F0010E23F0100343EA0E139386938EF8
S3150000144001F0030E23F0C00343EA8E139386938EB6
S31500001450012F43F00C03938600F09180002F00F0DB
S315000014608980AB7D002B40F0DB80938E23F0030355
S3150000147043F001039386938E23F00C0343F0080395
S315000014809386136C23F4402343F480231364136B75
S31500001490002840F0B78023F0407343F000731363D5
S315000014A0938E43F48073938687E700BFB45300009E
S315000014B03C59000054504700AA6893F801E0D78EC3
S315000014C094F800C00EF0010827F0100747EA081745
S315000014D0D786D78E0EF0030827F0C00747EA88178D
S315000014E0D786D78EBCF1010F47F00C07D7866AD096
S315000014F0BCF1000F62D0A97D002940F09E80D18EFC
S3150000150021F0030141F00101D186D18E21F00C01B9
S3150000151041F00801D186116C21F4403141F480314B
S315000015201164116B002874D121F4403141F400316B
S315000015301163D18E41F48071D1863BE7534F00F0A1
S315000015400F001B010744DBB23B764AE72278012AEB
S315000015507FF4A2AE99E6187899786A741A79AA7512
S315000015600023A874E9740693A8E62378012B7FF478
S3150000157051AF26E7938E23F00303938690E700236B
S315000015801365136C23F4402343F4802313646B7DAB
S31500001590012B0CBF4FF6FF734FF0FF339365938E0D
S315000015A023F00303002955D143F002039386938E5B
S315000015B023F00C0343F00403938671E7D18E21F0E8
S315000015C00301D186B5E7D164116C21F4403141F4B1
S315000015D080311164697D01290CBF4FF6FF714FF010
S315000015E0FF315165D18E21F00301BEF1000F3BD1D1
S315000015F041F00201D186D18E21F00C0141F00401A7
S31500001600D18696E7411C39D023F040731363906569
S3150000161046E7471C36D021F440311163506588E710
S31500001620938E23F0030343F002039386938E23F0F5
S315000016300C0343F00403938623E7D18E21F00301C4
S3150000164041F00201D186D18E21F00C0141F0040156
S31500001650D18660E743F001039386938E23F00C0353
S3150000166043F0080393861BE741F00101D186D18E32
S3150000167021F00C0141F00801D1865AE743F040738E
S3150000168013630DE741F44031116352E7FCEC00E0CF
S3150000169010B582B0EFF30383164A103B12685BB2B3
S315000016A052F833301C68EFF30380103840B202F072
S315000016B013FDE4B1627CA36882B1DA6A002122F0EC
S315000016C00102DA629964A27C02B1D964E27C0AB1B1
S315000016D000221A65DA6B22F04002DA63236833B11E
S315000016E06268009200228DF804206846984702B08E
S315000016F010BD00BF3C590000024658B1064B0749D1
S315000017001B68002B08BF0B460020596803EB8103BA
S3150000171013607047012070479800FE1FE4540000D4
S3150000172088B10A4B1B6863B15A6800F1100103EBDC
S31500001730820353F8042F40F8042B8842F9D1002085
S3150000174070471C2070470120704700BF9800FE1F9D
S3150000175070B36AB3174BF0B51E681EB3164B077805
S315000017601B68002404E00134B44203F1080319D0D5
S315000017709D79BD42F7D193F805E04588B5EB9E0FFC
S31500001780F1D1DD7990F801E005F0070CF445EAD1D6
S31500001790B1EBD50FE7D19B881470C3F309035380CF
S315000017A00020F0BDDF21FF23117053800B20F0BD18
S315000017B0012070471801FE1F3C59000020B1034B61
S315000017C01B6803600020704701207047CC5300005F
S315000017D070B42A4C216851B1234604F57F7000226B
S315000017E001E053F8041F83420A44FAD11AB100BE3D
S315000017F01D2070BC7047224D22482A600368190CD0
S31500001800B1F5807F02D0002070BC7047196801399D
S315000018100331F8D81C495E6A8E42F4D12B60016808
S315000018206368486804EB830301EB800101F1230040
S31500001830233301214FF47E4503E0013201310138A3
S31500001840013B25FA02F4E40707D5072A10D0082A37
S3150000185007D01E780478A642C9D11029EDD1002000
S31500001860D2E70478372CE8D01E78A642E5D0BEE74A
S3150000187006781C78A642E0D2B9E700BFE45400001F
S315000018809800FE1F9CB17F405237465300285ED019
S3150000189000295CD08B4B2DE9F0439A6890F800C084
S315000018A003EB82029478A44537D24FEA1C1802EB68
S315000018B088060CF00F073589D2F804E025FA07F9F7
S315000018C019F0010F29D0072FB67A09D902EB88083B
S315000018D00CF0070798F80BC00CF00F0C66442D0AA5
S315000018E0DFF8E481DFF8E4C118F80780754F08EAED
S315000018F0050524091CF80550023402EB8402AC19D4
S3150000190002EB440532F814206C78C2F3090225066E
S3150000191003EB820305D4002B4BD14FF4AF60BDE837
S31500001920F08317F8222045785208FDB14FF0020ED9
S31500001930012604271C78E40705F1FF3552D5052A50
S3150000194000F2BE80DFE802F0332D211C1A050120CB
S3150000195070479A781EFB0264033204EB92029200EF
S3150000196013441A7854082246002DE3D1042A00F2C3
S31500001970A480DFE802F0636363503B000822EFE7D0
S315000019809A7817FB02629200EAE793F804C09C7803
S3150000199014FB0CF2D41C0CF1030204EB920292002D
S315000019A0DEE71A79033222F003020C32D8E70C2262
S315000019B0D6E74478B4B9DC78C4F303144C72DC7807
S315000019C00125C4F303048C728D804088002843D11E
S315000019D037F822200EEB02220A609B78CB80087231
S315000019E0C86015E040F27950BDE8F083DA78C2F3BA
S315000019F003124A72DA78C2F303028A725878C880F0
S31500001A0000228A800A72CA605B680B608307E9D588
S31500001A100020BDE8F083DA78C2F303124A72DA785E
S31500001A20C2F303028A725A78CA809A788A8004338B
S31500001A3004200022CB6008720A60E9E7DC78C4F370
S31500001A4003144C72DC78C4F303048C721D79ACB2B7
S31500001A508C804088844203D840F27A50BDE8F083F7
S31500001A60DC889E68012A04FB00640C601CD0022AF4
S31500001A700AD09C785B78002243EA0424CC800A7260
S31500001A80CA60002CE8D0C3E71C18EA1C247BCC8073
S31500001A909D780D72920805FB002003EB80030C3342
S31500001AA0CB60002CD8D0B3E7034400221C7BCC804B
S31500001AB00A72CA60002CCFD0AAE76420BDE8F08382
S31500001AC000224DE7E45400002C530000345300007C
S31500001AD0034B04301B6823F820100020704700BF1A
S31500001AE0DC00FE1F034B021D1B68002023F82200AA
S31500001AF0704700BFDC00FE1F034B1A68137863F0C3
S31500001B007F03137000207047DC00FE1F034B1A682A
S31500001B10137803F07F03137000207047DC00FE1F6C
S31500001B2020B1034B1B6803600020704701207047FB
S31500001B30EC53000060B1012808D1094B1B68002056
S31500001B4040214122187119711A717047012070479E
S31500001B50034B1B6840214122987099709A70704718
S31500001B60DC00FE1F002836D070B51C4986B0002365
S31500001B700B22019302930393049305930546CB68C6
S31500001B808DF8042001A802A99847044608B106B0BA
S31500001B9070BD134E029B336001A802F067FA6B68B2
S31500001BA073B130682346AA6812F8231002EB830249
S31500001BB00431528820F821206A6801339A42F2D80B
S31500001BC028780028E3D032681378002063F07F037A
S31500001BD0137006B070BD0120704700BFB4530000FB
S31500001BE0DC00FE1F28B321B3134B1B6893F8262095
S31500001BF002F0070202701A6AC2F302320A701A6A07
S31500001C00C2F302224A701A6AC2F302128A701A6A70
S31500001C1002F00702CA701A6AC2F302420A711A6A0D
S31500001C20C2F302724A711B6AC3F302638B7100200E
S31500001C3070470120704700BF9C00FE1F06207047BA
S31500001C40062070470620704706207047062070471A
S31500001C500620704720B1034B1B68036000207047C5
S31500001C600120704774540000344A536893F82810D2
S31500001C7001F03003102B31D0202B0AD0DFED307A63
S31500001C80F0EE676A67EEA67AFCEEE77AC2ED077AAF
S31500001C90704790F82B302B499B0931F81310002917
S31500001CA048D090F82B30D2ED057A03F01F03B8EE3A
S31500001CB0677A06EE903A07EE901AF8EE666AB8EE84
S31500001CC0676AF7EE007A76EEA76AC7EE067A67EEDF
S31500001CD0A67AFCEEE77AC2ED077A7047038D10B458
S31500001CE003F00303184C34F813400CB34B0622D50B
S31500001CF0038D13F0100F0CBF0321002102EB8101AD
S31500001D00D1ED027A038DB8EE677A07EE904AB8EE07
S31500001D10676AC3F30523C7EE067A013306EE903AE7
S31500001D20FAEEEF6A67EEA67AFCEEE77AC2ED077A7C
S31500001D305DF8044B70470321E0E700BF9C00FE1FDF
S31500001D4000000000F05300006454000003290ED088
S31500001D50052907D009B10120704790F83C0000F032
S31500001D600100704790F83C00C0F34010704790F8AF
S31500001D703C00C0F3C000704791F800C04A79F8B53E
S31500001D8091F801E08F78CE780D798B7900246CF389
S31500001D900E346EF30A2467F3061466F3020465F341
S31500001DA0124462F31E74054663F31A64002002F0BF
S31500001DB06BFA2C620020BDE8F84002F035BA00BF8D
S31500001DC010B5184B1C6894F84120D20706D494F835
S31500001DD04130D9074FF0000016D410BD5A6894F868
S31500001DE0263092F82820520603F0070306D4052B66
S31500001DF001D0032BEBD140F2971010BD228DD006F7
S31500001E00F5D5052BF5D1E2E702F03EFA94F841301C
S31500001E1023F0010384F84130002002F005FA002087
S31500001E2010BD00BF9C00FE1F38B50A4B1D68044656
S31500001E30002002F029FA95F8303004F0010423F06E
S31500001E4001031C4385F83040002002F0EDF9002024
S31500001E5038BD00BF9C00FE1F084B10B51C68002053
S31500001E6002F012FA94F8523043F0010384F852302B
S31500001E70002002F0D9F9002010BD00BF9C00FE1F13
S31500001E80084B10B51C68002002F0FEF994F8523099
S31500001E9023F0010384F85230002002F0C5F9002037
S31500001EA010BD00BF9C00FE1F084B10B51C6800202B
S31500001EB002F0EAF994F83E3063F07F0384F83E308E
S31500001EC0002002F0B1F9002010BD00BF9C00FE1FEB
S31500001ED0084B10B51C68002002F0D6F994F83E3085
S31500001EE003F07F0384F83E30002002F09DF90020C5
S31500001EF010BD00BF9C00FE1F084B10B51C680020DB
S31500001F0002F0C2F994F8533043F0010384F85330D9
S31500001F10002002F089F9002010BD00BF9C00FE1FC2
S31500001F20084B10B51C68002002F0AEF994F8533047
S31500001F3023F0010384F85330002002F075F90020E5
S31500001F4010BD00BF9C00FE1F38B50A4B1D68044635
S31500001F50002002F099F995F8243004F0070023F0E8
S31500001F60700343EA001085F82400002002F05CF9B3
S31500001F70002038BD9C00FE1F03788B4201D205204D
S31500001F80704743789942FAD883789942F7D8C3784C
S31500001F909942F4D843799942F1D803799942EED817
S31500001FA0807981428CBF05200020704710B400293B
S31500001FB041D0062837D005280AD0042823D0D8B126
S31500001FC0012828D002283AD0032840D0032010E068
S31500001FD0234C002320680B60026AC2F3027290F859
S31500001FE0263003F0070304EB830300209B68D340ED
S31500001FF00B605DF8044B7047194C08602068026A54
S31500002000C2F30232EBE7164C002320680B60026A2B
S31500002010C2F30242E3E7124C002320680B60026A17
S31500002020C2F30222DBE70E4C002320680B60026A33
S31500002030C2F30262D3E701205DF8044B7047084CF7
S31500002040002320680B60026AC2F30212C7E7044C41
S31500002050002320680B60026A02F00702BFE700BF98
S315000020609C00FE1F08B903207047F8B50D460446CC
S3150000207001F0C6FD07EE900AF8EE676AF7EE007A01
S31500002080C7EEA66A154A164E10680027176096F81E
S315000020902330D9B207EE905A07EE104AF8EE677A67
S315000020A0B8EE477A66EEA77AC7EE277AFCEEE77AAD
S315000020B017EE903A013BB3F1807F0CD201F0F001AC
S315000020C0F0250724536086F823509760146086F83D
S315000020D023103846F8BD10601220F8BD10E000E06D
S315000020E000ED00E070B50C4682B0002956D00546DA
S315000020F000287FD0404C236893F8AA0010F0010016
S3150000210065D193F8A020196A6668C1F302318DF88B
S315000021100010196AB068C1F302218DF80110196A1E
S31500002120C1F302118DF80210196A01F007018DF84A
S315000021300310196AC1F302418DF80410196AC1F33C
S3150000214002718DF80510196AC1F3026102F00303EA
S315000021508DF8061000283CD0032B3AD13169684629
S31500002160FFF70AFF00283FD12946012001F01AFE99
S315000021702468002002F088F894F8403063F07F036A
S3150000218084F8403094F8403043F0010384F840303E
S31500002190002002F049F8002002B070BD164B1D6801
S315000021A095F84130DB0721D4084602F06DF895F822
S315000021B0403023F0010385F8403095F8403003F0B5
S315000021C07F03204685F8403002F02EF8204602B004
S315000021D070BDF268002AC7D0022BC5D17169684666
S315000021E0FFF7CAFE0028BFD00520F0E74FF4CB70FA
S315000021F002B070BD0120EAE79C00FE1F38B50B4B0C
S3150000220004465B68002093F8225002F03DF894F8EB
S315000022108034DB0705D594F8813423EA050384F876
S3150000222081340020BDE8384001F0FEBF9C00FE1F4F
S31500002230052827D0184B042870B51E6824D00446FC
S3150000224000200D4602F020F896F83E3003F07F039A
S3150000225086F83E3096F83E3005F0070123F070050B
S3150000226045EA011186F83E1096F83E3004F0070064
S3150000227023F00704204386F83E00002001F0D4FF37
S31500002280002070BD0320704796F88034DB07D6D552
S315000022904FF4C87070BD00BF9C00FE1F0A4B1B6840
S315000022A093F82A0010F001000DD093F8320010F0D8
S315000022B0010008D093F8360010F001001CBF93F817
S315000022C0380000F0010070479C00FE1F05292ED83B
S315000022D0DFE801F00A11181F260390F82A0000F023
S315000022E0010080F00100704790F8360000F0010010
S315000022F080F00100704790F8380000F0010080F08F
S315000023000100704790F8900400F0010080F0010091
S31500002310704790F8320000F0010080F0010070472D
S3150000232090F8800400F0010080F001007047002062
S31500002330704700BF70B582B04FF6FF730193D1B1FD
S31500002340A1F102040546B4FA84F40C4E640904E0D3
S31500002350019B43B1019B013B019330682946FFF77E
S31500002360B5FFA042F4D1019B002B0CBF4FF4CD70FA
S31500002370002002B070BD084602B070BD9C00FE1F72
S31500002380F0B5364D87B0281D01F0FAFC06A8344A90
S31500002390002303210093029300F8181D039304936E
S315000023A0059302A9D3689847029C2C604FF6FF73E9
S315000023B0019394F83630D90736D5002001F064FF32
S315000023C094F8A530254E23F0070343F0060384F85E
S315000023D0A530002001F028FF6B682F689869DB693B
S315000023E0204A6B6100244FF6FF714FF40043A8604A
S315000023F020460191EA60EC612B61AB6101F044FF7C
S3150000240097F8803443F00103204687F8803401F0C2
S315000024100BFF04200121FFF78DFF0446A8B14FF4FE
S31500002420CD74204607B0F0BD94F83C30DA0708D4E6
S31500002430019B33B1019B013B019394F83C30DB07D0
S31500002440F6D5019B002BEAD0B7E7336818461A6A1F
S3150000245093F82630FFF7D2FEE3E700BF9C00FE1F8D
S31500002460B453000000127A00052801D903207047F2
S3150000247038B53D4D2A6892F8263003F00703984296
S315000024801FD0052B10D092F82A30D9070CD5012879
S3150000249003D192F84030DB0918D104462146104694
S315000024A0FFF714FFA8B938BD6B6893F828305B06B0
S315000024B00AD5138D13F0100F0CBF03230023984287
S315000024C0E5D140F2911038BD0323F8E740F29510AC
S315000024D038BD2868244D2146FFF738FC10B940F274
S315000024E09310E0E700202D6801F0CEFE052C0AD8F7
S315000024F0DFE804F02B32241D160395F82A3043F04A
S31500002500010385F82A30002001F08EFE20460121C5
S31500002510FFF710FF002814BF4FF4CD70002038BD20
S3150000252095F8803443F0010385F88034EBE795F89D
S31500002530323043F0010385F83230E4E795F8903401
S3150000254043F0010385F89034DDE795F8363043F023
S31500002550010385F83630D6E795F8383043F00103A5
S3150000256085F83830CFE700BF9C00FE1F052801D94B
S315000025700320704738B5431E012B044611D90428A1
S315000025800FD028B1032803D0052801D0002038BD7C
S31500002590104D21462868FFF799FE78B94FF4C870A8
S315000025A038BD0C4B21461868FFF790FE40F2911398
S315000025B0002814BF18464FF4C87038BD2868214655
S315000025C0FFF7C4FB40F2931300280CBF18464FF4E4
S315000025D0C97038BD9C00FE1F70B506464FF6FE74E6
S315000025E040F2931501E0013C0CD03046FFF7BEFFE8
S315000025F0A842F8D038B16FF4C873C318022B38BF9D
S31500002600002070BD284670BD30B583B04FF6FF730D
S315000026100446012001930D4601F036FE02A8002370
S3150000262000F8053D01F064FA94F8AA30D80603D400
S3150000263094F8A030D9060AD5019B013B0193019B72
S31500002640002BF1D1012001F0EFFD03B030BD94F86D
S31500002650AA304FF6FF7223F0010384F8AA300192E4
S3150000266002E0019B013B019394F8AA30DA0603D4F9
S3150000267094F8A030DB0602D5019B002BF1D1042D86
S315000026803FD094F8A02005F0030322F00302134381
S3150000269084F8A0304FF6FF73019302E0019B013BE3
S315000026A0019394F8AA30D80603D494F8A030D9063A
S315000026B002D5019B002BF1D194F8AA30042D0CBF52
S315000026C043F0010323F0010384F8AA304FF6FF73A9
S315000026D0019302E0019B013B019394F8AA30DA06CC
S315000026E003D494F8A030DB0602D5019B002BF1D170
S315000026F09DF8030001F010FA012001F095FD03B0EA
S3150000270030BD94F8A03043F0030384F8A030C1E74D
S31500002710042810B50C4607D0022805D00D4B5A6880
S315000027209268A2420BD210BDFFF7B8FD0028F5D083
S31500002730084B04211868BDE81040FFF765BF18680C
S3150000274090F82A30DB07EED50321BDE81040FFF7ED
S315000027505BBF00BF9C00FE1F054B186890F8AA30AF
S31500002760DB0702D490F8A03070470321FFF74CBF77
S315000027709C00FE1F052801D9032070472DE9F0476C
S31500002780C44E2DED028B0D46044601463068FFF718
S315000027909DFD074630BB042C3FD0012C4BD054B3D3
S315000027A0032C58D0052C00F0A280356801F06CFD92
S315000027B0032C00F09580042C36D0022C41D195F8DC
S315000027C0903423F0010385F89034002001F02CFDAD
S315000027D020460221FFF7AEFD002814BF4FF4CD704E
S315000027E0002004E03068FFF73FFA40F29110BDEC9C
S315000027F0028BBDE8F087336893F83C30DB0727D4BB
S31500002800FFF7AAFF3568204601F03EFD95F8363001
S3150000281023F0010385F83630D7E73068FFF7EEFC82
S315000028203846356801F030FD95F8803423F0010311
S3150000283085F88034C9E7FFF78FFF3846356801F021
S3150000284023FD95F8383023F0010385F83830BCE7CE
S3150000285040F29310CBE7336893F83C50C5F3C005BC
S31500002860002DF5D1FFF778FF7368D6F8009093F83E
S31500002870277093F821A093F82080284601F004FDE4
S3150000288099F8132407FA0AF75FFA88F307EA0301AF
S3150000289022EA03030B4389F81334284601F0C4FCEB
S315000028A03768284601F0F0FC97F8133423F040030C
S315000028B087F81334284601F0B7FC3768284601F03C
S315000028C0E3FC97F8A23023F00F0343F005032846F4
S315000028D087F8A23001F0A8FC2846356801F0D4FC40
S315000028E095F8323023F0010385F832306DE75DB399
S315000028F07368687893F824202978904222D893F850
S31500002900262095ED017A07EE902AF8EE677AF4EE26
S31500002910C77AF1EE10FA15D493F8253007EE903AFF
S31500002920F8EE677AB4EEE77AF1EE10FA0AD40329E4
S3150000293000D039B93068574FFFF7C8FC30B94FF4AB
S31500002940CA7054E7032052E7012050E73B6893F82A
S315000029503C80C8F34018B8F1000F7FF479AFFFF759
S31500002960FBFE95F800903F68404601F08DFCB9F1FA
S31500002970030F00F08A803B8D43F010033B85002057
S3150000298001F052FC7368D6F8008093F8283095F869
S31500002990019003F03003102B11D13F4B002033F888
S315000029A0197001F071FCB8F8283007F0030723F01E
S315000029B003033B43A8F82830002001F035FC736878
S315000029C093F8283003F03003202B12D1334B00202C
S315000029D033F8197001F058FC98F82B3007F003070C
S315000029E003F03F0343EA871388F82B30002001F0F9
S315000029F01BFC7368376893F8283095ED018A03F05D
S31500002A003003102B14D1002001F03EFC78EE087A3A
S31500002A103A8DFCEEE77A22F47C5217EE903A013BAF
S31500002A2003F03F0342EA03233B85002001F0FCFB51
S31500002A30736893F8283003F03003202B13D100205D
S31500002A4001F022FCFCEEC87A97F82B2017EE903A9C
S31500002A50013B03F01F0322F01F02134387F82B30BC
S31500002A60002001F0E1FB3068FFF7FEF83068002136
S31500002A70FFF7CAFD3568002001F006FC95F82A30FC
S31500002A8023F0010385F82A309FE63B8D23F01003DF
S31500002A903B8574E79C00FE1F6C54000078540000D0
S31500002AA0012815D0022801D000207047052938B525
S31500002AB015460C460FD02046291DFFF75BFE28B1B0
S31500002AC040F29113984208BF002038BD002038BD5F
S31500002AD00846FFF7C9BC10791146FFF74BFE18B13F
S31500002AE040F291139842F0D12879FFF775FD00283E
S31500002AF0E1D038BD2DE9F0430B788A794C78CD7852
S31500002B0091F804E04F79934285B001D3A34203D9EB
S31500002B10032005B0BDE8F083AB42F9D39442F7D366
S31500002B209742F5D39645F3D3042806460C4600F0A3
S31500002B308A805A4F386890F8263003F007039E4281
S31500002B400FD0002E75D0032E73D0052E71D03146CE
S31500002B50FFF7BCFB20B94FF4C87005B0BDE8F083A1
S31500002B603868036A036A036A036A036A036A036AC4
S31500002B70DFF828810021C3F30269FFF745FD07EB63
S31500002B808603A2799B683968D340002201938DF8A9
S31500002B9000208DF80C200A6A91F8263003F007030E
S31500002BA007EB8303C2F302629B686846D340029335
S31500002BB001F036F805460028ABD1A3794B4547D935
S31500002BC02146D8F80000FFF7D7F8D8F80040284685
S31500002BD001F05AFB94F8262006F0070322F00702BC
S31500002BE01343284684F8263001F01EFB3B681A6A18
S31500002BF093F8263003F0070307EB8307C2F302625C
S31500002C00BB686846D340012202938DF8002001F08C
S31500002C1007F8044600287FF47CAF00F0F1FF204B54
S31500002C2001461860002896D03046FFF771FD204611
S31500002C306FE73146FFF78AF8002891D140F29310EA
S31500002C4005B0BDE8F083CAB1052005B0BDE8F08344
S31500002C50D8F8009001F018FB99F8262006F0070333
S31500002C6022F007021343284689F8263001F0DCFAE1
S31500002C70D8F800002146FFF77FF8B7E7002FE3D129
S31500002C80064F386890F84030DB09DDD190F82630E1
S31500002C9003F00703042B7FF45AAF62E79C00FE1F84
S31500002CA03001FE1F052801D90320704709B1FFF73F
S31500002CB021BF0120704700BF2DE9F04186B00028F2
S31500002CC05ED0044606A80023257800F8113D04A925
S31500002CD08DF810308DF811308DF812308DF81330D4
S31500002CE08DF814308DF815308DF81630FEF77AFF12
S31500002CF0667DE77C217DE27DA37D207E8DF80860E0
S31500002D00052D8DF80A708DF809108DF80B208DF8B9
S31500002D100C308DF80D0004D90324204606B0BDE81A
S31500002D20F081237806AA134413F8103C012BF3D044
S31500002D30022807D12379052BEED8134413F8103C4B
S31500002D40012BE9D005212246FFF7AAFEE8B90027A4
S31500002D503046F9B22246FFF7A3FE02AE40F29118C2
S31500002D60013708B1404514D1052F14D0F9B216F831
S31500002D70010F2246FFF794FE01370028F4D0F1E751
S31500002D800124204606B0BDE8F08140F29113984236
S31500002D90DDD00446C1E72846FFF71EFC0028F8D11F
S31500002DA0042D21D0064604F10C012846FFF7A2FEA9
S31500002DB004460028B1D19DF80700854205D006AB30
S31500002DC0034413F8103C012B08D0002EA5D000F0C8
S31500002DD017FF01462846FFF79BFC9EE7FFF744FBDB
S31500002DE00028F2D0044698E7FFF758FA80F0010071
S31500002DF0C6B2D8E720B1034B1B68036000207047BA
S31500002E0001207047B454000006207047E8B110B5A1
S31500002E1084B000230446684600930193029303930B
S31500002E2000F090FF9DF80C30990702D4062004B0FC
S31500002E3010BDE3691A88120409D41B8813F4007FB5
S31500002E400CBF00201B2004B010BD012070471B20C2
S31500002E5004B010BD88B1104B826A9A4201D0072097
S31500002E607047C3694BB190F82420022A07D01A880C
S31500002E7042F400721A8000207047012070471888BB
S31500002E80C0F3C03030B91A886FEA42426FEA524244
S31500002E901A807047082070474344415298B10B4B43
S31500002EA0826A9A4201D007207047C3695BB190F8E5
S31500002EB02420022A1A8814BF22F40072C2F30E02DA
S31500002EC01A80002070470120704700BF43444152DA
S31500002ED070B1084B826A9A4201D007207047C369D5
S31500002EE033B11B8813F4004F0CBF00200820704735
S31500002EF00120704743444152D0B1CB1CDBB21E2B9C
S31500002F0001D903207047002930B40ADB104C05882C
S31500002F10012354F825408B40234202D1032030BCC4
S31500002F2070470C4B846A9C4204D0072030BC704723
S31500002F30012070473AB1C3693BB11031002033F824
S31500002F4011301380EBE70220E9E70120E7E700BF35
S31500002F50E000FE1F4344415230B583B00023ADF874
S31500002F6006309AB114460DF106020546FFF7C4FF76
S31500002F70BDF8063010B1236003B030BDEA88B2F563
S31500002F80004F06D00020236003B030BD022003B0FE
S31500002F9030BD1B04F6E700BF30B129B1144B826A7D
S31500002FA09A4203D007207047012070470B78DA1C3D
S31500002FB0D2B2122A16D85BB2002B30B407DB0D4C06
S31500002FC00588012254F825409A4022420CD04A78BE
S31500002FD0062A09D9C16949B10B44002083F8E020CB
S31500002FE030BC7047032070470320F9E70120F7E75C
S31500002FF043444152E000FE1F30B129B1394B826A89
S315000030009A4203D007207047012070470379012BAD
S3150000301056D0F0B5C76983B0002F61D0C46A002CC2
S3150000302050D04FF0FF330122013302FA03F5254257
S31500003030FAD0B5F1805F50D0B5F1005F08BF6FF0F0
S315000030400103103307EB43030B6020220126013AEC
S3150000305006FA02F52542FAD0B5F1805F3AD0B5F10D
S31500003060005F08BF6FF00102103207EB4202D31A6D
S315000030705B1001334B60054602A800230C46202254
S31500003080194E0193012100F8042D2A88009321721C
S31500003090ADF80620336902216A46984770B92B7845
S315000030A0BDF80220628104335B004FF0FF32637289
S315000030B0E260EB7A012B07D06B88238203B0F0BD68
S315000030C0032070474C60D6E76B691B68C3F30B039C
S315000030D0E360F1E76FF00202C6E76FF00203B0E7C4
S315000030E00120EBE743444152B453000030B5B0F839
S315000030F0803023F00103A0F880300388C3F3413306
S31500003100012B038A43F47C5383B00D4603821CD003
S3150000311000240480448220232A88009468468DF87F
S315000031200030ADF8022000F09DFFEB6ADB000AD507
S315000031302B6903B11C7002A800222223019200F819
S31500003140043D00F08FFF03B030BD038A43F03F0318
S315000031500382DDE7002877D03C4B826A9A4201D091
S3150000316007207047C369002B6ED030B590F8303019
S31500003170044658B2002210F1210F83B0A26225D076
S31500003180904219DB400920300121314D03F01F0325
S3150000319001FA03F345F82030BFF34F8FBFF36F8F6B
S315000031A094F8303058B2904206DB420903F01F0310
S315000031B06032994045F8221000F08EFF254B94F9B5
S315000031C030201B6853F8323000221A6094F83130F0
S315000031D058B210F1210F25D0002819DB4009203004
S315000031E001211B4D03F01F0301FA03F345F82030BC
S315000031F0BFF34F8FBFF36F8F94F8313058B200286A
S3150000320006DB420903F01F036032994045F822109D
S3150000321000F062FF0F4B94F931201B6853F83230EF
S3150000322000221A60E0692146FFF760FF02A8002528
S315000032302023019500F8043D2388ADF8063000F000
S31500003240ABFF284603B030BD0120704743444152CE
S3150000325000E100E03C59000030B129B1AA4B826A76
S315000032609A4203D007207047012070472DE9F041AC
S31500003270C66986B05EB30D46A44A01882B6852F82B
S315000032802120044623B90320E36206B0BDE8F0819D
S3150000329042F04052D2431A42F5D13188C1F341314E
S315000032A0012916D06A68002AEDD1002302A80293EC
S315000032B003930493059300F045FD9DF808209307BA
S315000032C00ED46B6813F0405F0AD02B68DBE7012051
S315000032D0DBE769680029D6D01A430A42D3D1E4E76E
S315000032E02B6813F0405109D030880706CBD450071D
S315000032F000F1718196F87A20002AC4D1327B5207F8
S3150000330000F064816A68E9681A4331EA0202BAD1B8
S315000033100029B8D02A7C002A40F06B819BB2B3808A
S31500003320AB88B382AB8933816B88F380EB88F382F9
S31500003330EB8973812B6813F0405F03D16B6813F040
S31500003340405F66D0002302A802930393049305937B
S31500003350019300F0F7FC6E4B9DF810009B6901A9E4
S315000033609847019B6B4A934202D803202B688BE750
S315000033700028FAD16849039A684FA1FB03139B0CF6
S3150000338002FB03F3A7FB0337BF09FB1FF82BECD89F
S315000033902B68DA0002D46A68D2001CD5FBB286F824
S315000033A0DE30A37A012B00F0F3802B6813F0805FE8
S315000033B0738A00F0B58043F480737382738A23F4B2
S315000033C080637382EB68728AC3F3007322F0010292
S315000033D0134373822B68980002D46B68990018D542
S315000033E0FFB286F8DF702B6813F0005F738A00F077
S315000033F0828043F400737382738A23F400637382BA
S31500003400EA68738AC2F3407223F0020343EA420376
S3150000341073822B7C6A7C03F0030342EA4323A6F8FB
S3150000342066302B8948F2010293422ED0A6F88030EE
S315000034302379D4F81C80022B1FD0B8F80070C7F38C
S315000034404137012F2BD094F9300010F1210F14D001
S3150000345000F042FE94F8302053B2002B0DDB5B09DE
S315000034609B0003F1604303F5614302F01F02012153
S3150000347001FA02F2C3F880211A602A8948F2010390
S315000034809A4207D02B680020FEE62379D4F81C80E8
S31500003490022BD2D148F20103A6F88030F2E72A893E
S315000034A048F201039A4243D094F9310010F1210FFA
S315000034B012D000F011FE94F8312053B2002B0BDB32
S315000034C05B099B0003F1604303F5614302F01F02B1
S315000034D09740C3F880711F60B8F8003043F040038E
S315000034E0A8F80030B8F8103023F03F0343F00A0381
S315000034F0A8F81030A7E723F400737382738A43F4A5
S31500003500006373827CE700BF43444152E000FE1F24
S31500003510F85300003F420F0083DE1B43D34D621079
S3150000352023F480737382738A43F48063738249E75A
S31500003530B8F8103043F03F03A8F8103094F8312063
S3150000354050B210F1210F1CD0002818DB430920339C
S31500003550444902F01F0207FA02F241F82320BFF3A2
S315000035604F8FBFF36F8F94F8312050B2002806DBDF
S31500003570430902F01F026033974041F8237000F0C0
S31500003580ABFDB8F8003023F04003A8F800305AE746
S315000035903548002322220193029303930493059353
S315000035A002A9C3688DF8042001A8984700287FF473
S315000035B0DDAE01A800F05AFD23691A7862F07F0299
S315000035C01A701A7842F010021A70EEE6EA68002ABB
S315000035D07FF459AE9EE6B1F1405F3FF454AE23F05E
S315000035E07042002A7FF44FAE2279002A7FF44BAE58
S315000035F084E60021102202A801F01CFE02A800F0B9
S31500003600A1FB9DF80830DB077FF55FAE2A7C072A11
S315000036103FF65BAE6B7C032B7FF657AE37882B6885
S315000036206968C7F34137012F02EA030001EA020184
S315000036300DD082427FF427AE328817060DD40029BA
S315000036403FF46CAE2A89002A7FF41DAE66E68242FC
S31500003650F2D08A427FF417AEEEE700287FF413AE6D
S31500003660EDE700BF00E100E0B4530000002838D0C9
S31500003670002936D0F0B58B888E78C3F30E038DB053
S3150000368013B103200DB0F0BD0C46054608A80893FB
S3150000369009930A930B9300F055FBA37933B19DF878
S315000036A02C20D70740F17C81852BEAD0E27912F0F5
S315000036B0DF0FE6D1277AA278022FE2D8022AE0D8D5
S315000036C0E17809B1052BDCD023690BB1022AD8D0E9
S315000036D0012E00F08081B849A86A884203D10820EB
S315000036E0D0E701207047B54E20886169B4F804C060
S315000036F02B624FF0200E00230293089309930A933E
S315000037000B932880ADF80A00A961F3682A71A5F821
S3150000371006C085F824708DF808E002A80DEB0E01AE
S3150000372098470028AED1BDF82620089BEB61C2F36E
S3150000373082035B00C2F3401208332B726A72A049FF
S31500003740228851F8220040B90B9F788841F8220060
S31500003750FF8840EA074041F822000C2B00F0428126
S315000037600E2B00F02181102B00F0308102A800F012
S31500003770DFFC002886D1089008AA376902A8022132
S31500003780B8479DF82030226985F8303058B2002AB3
S3150000379000F0678110F1210F00F03181894AA17A8A
S315000037A0126801920028C0F2738100F1604E0B018D
S315000037B00EF5614EDBB28EF8003395F83030019A83
S315000037C052F8302058B2002815601ADB4209203220
S315000037D001217D4F03F01F0301FA03F347F822305E
S315000037E0BFF34F8FBFF36F8F95F8303058B2002874
S315000037F006DB420903F01F036032994047F82210A6
S31500003800376900F069FC08AA02A80321B847A37823
S315000038109DF8202085F83120012B50B200F0E7807A
S3150000382010F1210F31D06749E37A09680028C0F208
S31500003830278100F160421B0102F56142DBB282F88A
S31500003840003395F8312051F8303050B200281D6011
S3150000385019DB4309203301215B4F02F01F0201FAF5
S3150000386002F247F82320BFF34F8FBFF36F8F95F80F
S31500003870312050B2002806DB430902F01F026033F4
S31500003880914047F8231000F027FC0027AF72EF7233
S315000038906F612F6104A8049705970697079700F0B4
S315000038A051FA9DF81030039722228DF80C20DA0683
S315000038B000F1AA80190700F1C180BDF812306B80B3
S315000038C02946E869FFF712FC002620222388049681
S315000038D004A88DF81020ADF81230089609960A96BD
S315000038E00B9600F0C3FBEB691E805E82E969A27845
S315000038F00B8802F0030223F4C04343EA42330B80F1
S31500003900EA69138823F080031380237A012B00F0E1
S315000039108D804BB9EA69138843F480731380EA6992
S31500003920138A23F47C531382EB69E178DA8901F078
S31500003930030122F0060242EA4102DA81DA89A1880D
S31500003940C2F30E02A1F50041B1FA81F1490942EA3A
S31500003950C132DA81DA89E17922F02002A1F120016F
S31500003960B1FA81F1490942EA4112DA81A2791A7360
S3150000397008A800F0E7F99DF82C30C3F3400313F0D4
S31500003980FF0F2B7303D0217B002900F089806B7A0F
S31500003990012B6BD00023084AEB621846AA6271E637
S315000039A018067FF56EAE81E6E378032B3FF4DEAEB4
S315000039B0002B7FF466AED9E643444152B45300006F
S315000039C0E000FE1F3C59000000E100E0E378042B14
S315000039D07FF457AECAE6208940F2011188427FF48F
S315000039E050AE78E6E378022B3FF64BAEBEE623698F
S315000039F0002B3FF415AF10F1210F7FF414AF02A88E
S31500003A0000F0CAFB0B203DE6089709970A970B972B
S31500003A10F36803A808A9984700287FF451AF01214D
S31500003A20089A9DF81030A9722A6143E7EA69138A59
S31500003A3023F47C5343F41063138275E700230127B4
S31500003A40F2688DF80D70089309930A930B9303A8F7
S31500003A5008A9904700287FF433AF089BEF726B618B
S31500003A602BE710F1210F3FF4CEAE97E6EB6900226B
S31500003A70A3F8B021EB6949F69912A3F8A02189E7CA
S31500003A80194F02F00F021B011744DBB23B76D8E652
S31500003A90154A03F00F031A440901CBB213768CE6DC
S31500003AA02846FFF7B3F9044640B102A800F074FBBC
S31500003AB0E8692946FFF71AFB2046E3E595F9300049
S31500003AC000F00AFB95F8302053B2002BFFF65FAFEB
S31500003AD05B09603302F01F020121044801FA02F279
S31500003AE040F8232053E700BFFCEC00E000E100E0D3
S31500003AF068B1084AB2F8003103F00103037092F886
S31500003B0000316FF3000382F8003100207047012076
S31500003B10704700BF00C00140104991F8043143F0DE
S31500003B20010381F80431B1F80431DB070CD54FF0FD
S31500003B30FF3300E033B1B1F80421D20703F1FF33BC
S31500003B40F8D40BB914207047044A92F8003160F398
S31500003B50000382F800310020704700BF00C001401A
S31500003B6070B5254D82B02B6898470120FFF7D4FF2A
S31500003B700021AE680320B0470121204AEC698DF888
S31500003B800110032301928DF800300320A047B0F501
S31500003B90C97FFAD169460520B04720B140F291139A
S31500003BA0984200D000BE0520A047B0F5C97FFAD1E3
S31500003BB00223012200208DF806008DF801308DF8D1
S31500003BC002308DF8053069468DF800208DF8032007
S31500003BD08DF804202B690520984700B100BE2B6E96
S31500003BE004209847AB6A01209847EB6A9847AB6D6B
S31500003BF0984702B070BD00BFF85300000000A04116
S31500003C0000B583B002A9002341F8043D034B06200A
S31500003C109B699847019803B05DF804FBF8530000D0
S31500003C20037870B423B1012B3CD0002070BC7047E0
S31500003C3042683E498A426BD93D4B3E4EF1251D7185
S31500003C40197A41F004011972197A41F008011972C2
S31500003C50197A41F001011972197AF02441F0020132
S31500003C60B24219721C7105D91D71197A41F0100101
S31500003C7019721C71304B31499A4294BF01230223B9
S31500003C8003731C4691F81C3103F00703A3423FBFA0
S31500003C9091F81C3123F00703234381F81C31037884
S31500003CA0012BC2D18368214A93423BD8204BF12293
S31500003CB01A711A7A22F004021A721A7A22F008028B
S31500003CC01A721A7A22F001021A721A7AF02122F076
S31500003CD002021A721971164BF1221A711A7AF02120
S31500003CE022F010021A7219711449037B91F81C21F3
S31500003CF002F00702934298D091F81C2103F00703C3
S31500003D0022F00702134381F81C31002070BC704773
S31500003D100B498A42AED8094A037392F81C31002037
S31500003D2070BC7047034A9342DED8D4E7000E2707DB
S31500003D300020004000C2EB0B0068890900C001406A
S31500003D4000B4C4040378027B41F2360103F0E003B9
S31500003D5042F0010210B44160022443F0130341F221
S31500003D6004016FF3410284600370418002735DF8C1
S31500003D70044B7047037843F003030370704700BF9A
S31500003D80014B0360704700BFB8540000044B00218C
S31500003D9003F1300243F8041B9342FBD1704700BF86
S31500003DA0E800FE1F024B43F820100020704700BFBA
S31500003DB0E800FE1F08B57A4BB3F84031D90700F189
S31500003DC0C180774BB3F840319A0700F1B080744B4D
S31500003DD0B3F840315B0700F19F80714BB3F8403177
S31500003DE0180700F18E806E4BB3F84031D9067CD4AB
S31500003DF06B4BB3F84001C0F38010002869D1684BC3
S31500003E00B3F840311A0658D4654BB3F84031DB0598
S31500003E1047D4634BB3F84031980536D4604BB3F8BA
S31500003E204031590524D45E4BB3F840311A0512D4FB
S31500003E305B4BB3F84031DB0400D408BD594BDB6A59
S31500003E40002B40F0AA80564AB2F8303143F4805332
S31500003E50A2F8303108BD534B9B6A002B40F09A8084
S31500003E604F4AB2F8303143F40063A2F83031DFE74D
S31500003E704C4B5B6A002B40F08A80494AB2F83031DD
S31500003E8043F48063A2F83031CDE7464B1B6A002B22
S31500003E907AD1434AB2F8303143F40073A2F8303194
S31500003EA0BCE7404BDB69002B6BD13D4AB2F83031A1
S31500003EB043F48073A2F83031ABE73A4B1B68002B12
S31500003EC05CD1374AB2F8303143F08003A2F8303182
S31500003ED09AE7344B5B68002B4ED1314AB2F8303149
S31500003EE043F04003A2F8303189E72E4B9B69002B43
S31500003EF03FD12B4AB2F8303143F01003A2F83031EB
S31500003F0076E7284B5B698BBB254AB2F8303143F024
S31500003F100803A2F8303166E7224B1B691BBB204A17
S31500003F20B2F8303143F00403A2F8303155E71D4BA7
S31500003F309B68ABB91A4AB2F8303143F00203A2F8D3
S31500003F40303144E7174BDB683BB9154AB2F83031DC
S31500003F5043F00103A2F8303133E703209847F4E732
S31500003F6002209847E6E704209847D8E705209847B7
S31500003F70CAE706209847BCE79847AEE7002098476F
S31500003F809FE70720984790E70820984781E7092090
S31500003F90984772E70A20984762E70B20984752E74E
S31500003FA000600040E800FE1F30B4124902784588E0
S31500003FB0895C447801F01F03890614D501212B2A58
S31500003FC001FA03F008D0332A04D1012C04BF5A1C8D
S31500003FD004FA02F030BC7047072DFBD9013301FA11
S31500003FE003F030BC70472C441B1B0120984030BCAA
S31500003FF0704700BFF45800000378452B12D870B5FF
S31500004000164CE65CFF2E0BD015460C46FFF7CCFF90
S31500004010134BB20953F8223034B1B20611D585B923
S31500004020032070BD01207047EFF31082012181F358
S315000040301088196821EA0000186082F3108820466B
S3150000404070BDEFF31082012181F3108819680843CF
S31500004050186082F31088002070BD00BFF45800007D
S31500004060E458000001210022FFF7C6BF00210A46DE
S31500004070FFF7C2BFA0F101000028FBD1704700BFC7
S315000040802DE9D04301FB00F4FFF7BAFD4FF47A7136
S31500004090A4FB018900274FF0FF364F4508BF464570
S315000040A00C4BB3FBF0F005D3B8FBF0F0800860B919
S315000040B0BDE8D0838000B4FBF0F0A0FB01018F4285
S315000040C008BF8642F3D24FF0FF30BDE8D043FFF77A
S315000040D0D1BF00BF00CA9A3B002808DB800000F170
S315000040E0804000F5C640036823F4803303607047C0
S315000040F00B4A0C4B10B49B1A0B4CDB08236063B1C4
S315000041000A4800219388C3F3090340F8043F236853
S3150000411001318B4202F10802F4D85DF8044B704776
S3150000412000050000080500001801FE1FFC620040A3
S31500004130164B10B41C687CB1154B00681A681368DE
S31500004140984218BF002304D10AE052F8041F8142A6
S3150000415007D00133A342F8D103205DF8044B704722
S3150000416000230C4A12680121134403E0C3E8401FF0
S315000041700028F2D0D3E84F2F12F0FF0FF6D0BFF38E
S315000041802F8F08205DF8044B704700BF1C01FE1FEF
S315000041902001FE1F2401FE1F0F4B10B41C687CB1CA
S315000041A00E4B00681A681368984218BF002304D1A2
S315000041B009E052F8041F814206D00133A342F8D128
S315000041C05DF8044B70470023054A12680021D1545C
S315000041D05DF8044B704700BF1C01FE1F2001FE1F47
S315000041E02401FE1F38B50A4C0A4D0B480B490C4BEF
S315000041F00C4A04602D1BAD080D601A603DB104EB3E
S31500004200850520460434FFF7C7FFAC42F9D138BD17
S3150000421008050000B80600002001FE1F1C01FE1F55
S315000042202401FE1F1800FE1FEFF31081012383F304
S315000042301088124B33F8102092B22AB133F81020AE
S31500004240013A92B223F8102033F810309BB293B99A
S3150000425010B40B4A0B4CB2F8FE3334F810009BB284
S3150000426043F4254323EA0003A2F8FE3381F31088C2
S315000042705DF8044B704781F3108870472801FE1FD4
S3150000428000E001404059000030B4EFF310840123F0
S3150000429083F310880D4A32F810309BB25BB90C4D8F
S315000042A00C49B5F8FE3331F810109BB243F42543A0
S315000042B00B43A5F8FE3332F8103001339BB222F8D7
S315000042C0103084F3108830BC704700BF2801FE1FF1
S315000042D000E0014040590000024B00221A805A803B
S315000042E09A8070472801FE1F00BE704708B500F08F
S315000042F005F800F05BF9FEE7704700BF284A38B5BD
S31500004300D2F8883043F47003C2F888300020FFF7F3
S31500004310F3FFFFF73BFD234B1B689847FFF7DCFFD6
S31500004320FFF71EFC204A214B21481B6800241480FD
S315000043309847204A204B9B1A05D01344214603F880
S31500004340011D9A42FBD11D481D4BC01A07D01D4ABC
S31500004350184412F8011B03F8011B8342F9D1FFF739
S315000043604FFC194C194B1A4D18602D1B0120FFF7F5
S31500004370C3FF032DC8BF2D1904DD54F8043B98472D
S31500004380AC42FAD1FFF72EFFFFF7B2FE114B1248EF
S315000043901B6898470020BDE8384000F01FB800BFF2
S315000043A000ED00E0B4530000D800FE1FBC52000030
S315000043B0045A0000BC00FE1FDC01FE1F8400FE1F25
S315000043C00000FE1F905D00000C00FE1F3001FE1F66
S315000043D01000FE1FD05300004859000000F042B8FC
S315000043E082B04FF0C84300210091009A1A7D61F314
S315000043F000021A751A8DD0B1202161F30F221A8599
S315000044001A8D4FF0C04142F080021A850A68009268
S3150000441040F6FF721946019204E0019B013B0193AD
S31500004420019A12B18A6A5206F7D502B0704742F471
S315000044307F421A851A8D4FF0C04160F3C7121A8564
S315000044400A68009240F6FF711A46019105E0019B49
S31500004450013B0193019B002BE7D0936A5B06F6D4E0
S3150000446002B07047F8B54D490A684FF0C8440023BA
S3150000447022F0400210200A602063A3612362636376
S31500004480C4F80438227A63F304022272237DFF22E1
S3150000449043F0010323752261237D662243F0010365
S315000044A023752261237D992243F00103237522613E
S315000044B0237D43F00103237501212320FFF7E0FD4F
S315000044C09F232361364B22691A7022695A7021692B
S315000044D0227D997042F0010222751A78EF2A04D0E3
S315000044E000221A705A709A70F8BD5A78402AF7D18D
S315000044F09A78172AF4D1052020612A4923690B707E
S31500004500227D294B42F00102352622752661226959
S315000045101A70227D42F001022275228D042565F370
S31500004520030222852279502765F30302227127614F
S31500004530227D42F0010222751A78012742F002021A
S315000045401A7027610A7822611A782261227D3A431D
S3150000455022752561227D3A432275228860F3020284
S315000045602280206122690A70227D3A4322752661E3
S3150000457022691A70237D3B432375238843F0400349
S315000045802380A369DB074FF0C845FAD40120FFF763
S3150000459027FF2B7D6FF300032B75F8BD00700440D9
S315000045A03401FE1F3801FE1F3C01FE1F08B500F056
S315000045B02FF8002008BD00BF0B68032B1FD8DFE8CB
S315000045C003F0160C070200238B60012817D07047F2
S315000045D0012203238A600B6070474B680133002277
S315000045E0092B4B608A60F0DD02230B6070470023C5
S315000045F08B600028EBD1012348600B6070470023D5
S315000046000B6070470023036043608360704700BF00
S315000046102DE9F04F564ADFF878B1D2F808801468D1
S315000046205168D8F80030DFF86CA1DFF88091514E60
S31500004630514D83B020469847D8F808302046984711
S315000046405846FFF7DFFF5046FFF7DCFFD9F800308A
S31500004650D9F80C80D9F8041000931C462046D8F8E7
S3150000466000309847D9F80810D8F804302046984703
S31500004670D8F8083020469847404B1A68D3F8089077
S315000046805968019214462046D9F800209047D9F877
S315000046900830204698473A4B5C6800F089F80028B5
S315000046A0FBD000F0B3F8E369364905209847E36983
S315000046B0354906209847E369344940F20460984733
S315000046C0314B33491878FFF777FF2E4B314918786D
S315000046D0FFF772FFDBF80830012B2F4B197802BF6A
S315000046E0B1FA81F149091970DAF80830012B2B4B20
S315000046F008BF2A4A1B7804BF83F001031370002BFE
S315000047002AD0274B264A1B680133142B27DC13605B
S315000047101E4B1B78012B0CBF002301232B704FF47B
S31500004720C060236A9847236A297840F20160984757
S31500004730236A317840F202609847D8F81430194A53
S31500004740009800219847184901980968D9F8187007
S3150000475001221346B847A0E701233370D8E7337820
S31500004760B3FA83F300205B0933701060D0E700BF13
S31500004770EC590000C401FE1FBC01FE1FF8590000E1
S3150000478054590000C601FE1FDA01FE1FD901FE1FA3
S31500004790CC01FE1FB001FE1FC701FE1FC801FE1F90
S315000047A0C001FE1F0000FE1F0400FE1F5C59000032
S315000047B0114B70B51D68114C9E6821463369284619
S315000047C09847206800F06AF900220D4B00F05AFA6B
S315000047D010B90C4B187870BDF368284698470A4AFA
S315000047E013680133092B1360F3DD0649012000230A
S315000047F00870136070BD00BFEC5900007401FE1F05
S31500004800004CFD407801FE1F0800FE1F014B0022F0
S315000048101A7070477801FE1F81F0004102E000BF68
S3150000482083F0004330B54FEA41044FEA430594EA6A
S31500004830050F08BF90EA020F1FBF54EA000C55EAA5
S31500004840020C7FEA645C7FEA655C00F0E2804FEA76
S315000048505454D4EB5555B8BF6D420CDD2C4480EA58
S31500004860020281EA030382EA000083EA010180EA88
S31500004870020281EA0303362D88BF30BD11F0004FD6
S315000048804FEA01314FF4801C4CEA113102D040420C
S3150000489061EB410113F0004F4FEA03334CEA133347
S315000048A002D0524263EB430394EA050F00F0A7805F
S315000048B0A4F10104D5F1200E0DDB02FA0EFC22FA5A
S315000048C005F2801841F1000103FA0EF2801843FA4E
S315000048D005F359410EE0A5F120050EF1200E012A3F
S315000048E003FA0EFC28BF4CF0020C43FA05F3C0187D
S315000048F051EBE37101F0004507D54FF0000EDCF1F6
S31500004900000C7EEB00006EEB0101B1F5801F1BD39E
S31500004910B1F5001F0CD349085FEA30004FEA3C0CA2
S3150000492004F101044FEA445212F5800F80F09A8098
S31500004930BCF1004F08BF5FEA500C50F1000041EB9C
S31500004940045141EA050130BD5FEA4C0C404141EBA0
S31500004950010111F4801FA4F10104E9D191F0000FC7
S3150000496004BF01460020B1FA81F308BF2033A3F14A
S315000049700B03B3F120020CDA0C3208DD02F1140C41
S31500004980C2F10C0201FA0CF021FA02F10CE002F17C
S315000049901402D8BFC2F1200C01FA02F120FA0CFC75
S315000049A0DCBF41EA0C019040E41AA2BF01EB0451BE
S315000049B0294330BD6FEA04041F3C1CDA0C340EDCBC
S315000049C004F11404C4F1200220FA04F001FA02F3FF
S315000049D040EA030021FA04F345EA030130BDC4F1BD
S315000049E00C04C4F1200220FA02F001FA04F340EAB2
S315000049F00300294630BD21FA04F0294630BD94F063
S31500004A00000F83F4801306BF81F480110134013D49
S31500004A104EE77FEA645C18BF7FEA655C29D094EABA
S31500004A20050F08BF90EA020F05D054EA000C04BF38
S31500004A301946104630BD91EA030F1EBF0021002023
S31500004A4030BD5FEA545C05D14000494128BF41F0C2
S31500004A50004130BD14F580043CBF01F5801130BD26
S31500004A6001F0004545F0FE4141F470014FF00000B1
S31500004A7030BD7FEA645C1ABF194610467FEA655C62
S31500004A801CBF0B46024650EA013406BF52EA033504
S31500004A9091EA030F41F4002130BD00BF90F0000FF2
S31500004AA004BF0021704730B54FF4806404F132042E
S31500004AB04FF000054FF0000150E700BF90F0000FE7
S31500004AC004BF0021704730B54FF4806404F132040E
S31500004AD010F0004548BF40424FF000013EE700BFDE
S31500004AE042004FEAE2014FEA31014FEA02701FBF6E
S31500004AF012F07F4393F07F4F81F06051704792F040
S31500004B00000F14BF93F07F4F704730B54FF46074B9
S31500004B1001F0004521F0004120E700BF50EA010204
S31500004B2008BF704730B54FF000050AE050EA0102B1
S31500004B3008BF704730B511F0004502D5404261EB21
S31500004B4041014FF4806404F132045FEA915C3FF462
S31500004B50DCAE4FF003025FEADC0C18BF03325FEAFB
S31500004B60DC0C18BF033202EBDC02C2F1200300FAB0
S31500004B7003FC20FA02F001FA03FE40EA0E0021FAD5
S31500004B8002F11444C1E600BF4FF0FF3C06E000BF4F
S31500004B904FF0010C02E000BF4FF0010C4DF804CDC0
S31500004BA04FEA410C7FEA6C5C4FEA430C18BF7FEA80
S31500004BB06C5C1BD001B050EA410C0CBF52EA430CAE
S31500004BC091EA030F02BF90EA020F0020704710F12E
S31500004BD0000F91EA030F58BF994208BF90422CBFBD
S31500004BE0D8176FEAE37040F0010070474FEA410CB6
S31500004BF07FEA6C5C02D150EA013C07D14FEA430CD4
S31500004C007FEA6C5CD6D152EA033CD3D05DF8040B44
S31500004C10704700BF8446104662468C461946634676
S31500004C2000E000BF01B5FFF7B7FF002848BF10F14D
S31500004C30000F01BD4DF808EDFFF7F4FF0CBF012092
S31500004C4000205DF808FB00BF4DF808EDFFF7EAFF0E
S31500004C5034BF012000205DF808FB00BF4DF808EDC9
S31500004C60FFF7E0FF94BF012000205DF808FB00BFBE
S31500004C704DF808EDFFF7CEFF94BF012000205DF848
S31500004C8008FB00BF4DF808EDFFF7C4FF34BF012055
S31500004C9000205DF808FB00BF53B94AB9002908BFD8
S31500004CA000281CBF4FF0FF314FF0FF3000F03CB83A
S31500004CB082B0EC462DE9005000F01EF8DDF804E065
S31500004CC002B00CBC704700BF2DE9F041069C1546AA
S31500004CD006460F46984600F029F805FB01F300FB4F
S31500004CE00838A5FB0023B21A434467EB0303C4E963
S31500004CF00023BDE8F08100BF2DE9F041069C9046F7
S31500004D0006460F461D4600F05FF900FB05F5A0FBC1
S31500004D10082308FB0155B21A2B4467EB0303C4E9C9
S31500004D200023BDE8F08100BF704700BF00292DE9D0
S31500004D30F043C0F2A6800026002BC0F29C80884675
S31500004D4094469E46154604460F46002B3DD18A42A0
S31500004D5059D9B2FA82F33BB1C3F120029F4020FA3F
S31500004D6002F29D4017439C40290C220CB7FBF1FE32
S31500004D70A8B201FB1E7742EA074700FB0EF3BB42CF
S31500004D800AD97F190EF1FF3280F00581BB4240F24D
S31500004D900281AEF1020E2F44FF1AA4B2B7FBF1F363
S31500004DA001FB137744EA074700FB03F0B84208D932
S31500004DB07F1903F1FF3280F0F080B84240F2ED80B7
S31500004DC0023B43EA0E43002203E08B420FD9002246
S31500004DD01346341C18BF012460424FF0000565EBF2
S31500004DE045015840514000196941BDE8F083B3FAC6
S31500004DF083F2002A40F086808B4202D3844500F27B
S31500004E00DB800123E5E712B90123B3FBF2F5B5FA1E
S31500004E1085F000283BD1781B4FEA154E1FFA85FC1A
S31500004E200122B0FBFEF8210C0EFB180741EA0747EA
S31500004E300CFB08F3BB4207D97F1908F1FF3102D2F8
S31500004E40BB4200F2BD808846FF1AA4B2B7FBFEF350
S31500004E500EFB137744EA07470CFB03FCBC4507D956
S31500004E607F1903F1FF3102D2BC4500F2A7800B4641
S31500004E7043EA0843ADE752426FEA060663EB430393
S31500004E805DE7404261EB41014FF0FF3654E7C0F168
S31500004E90200224FA02F107FA00F385404FEA154E84
S31500004EA0D7401943B7FBFEF20B0C0EFB12771FFA25
S31500004EB085FC43EA07430CFB02F79F4204FA00F421
S31500004EC007D95B1902F1FF3074D29F4272D9023AB8
S31500004ED02B44DF1B89B2B7FBFEF80EFB187341EAC1
S31500004EE003430CFB08F79F4208D95B1908F1FF3111
S31500004EF05CD29F425AD9A8F102082B44D81B48EA33
S31500004F0002428EE7C2F120032CFA03F10EFA02FEEA
S31500004F1020FA03F741EA0E0E08FA02F028FA03F126
S31500004F204FEA1E453843B1FBF5F8030C05FB181193
S31500004F301FFA8EF743EA014107FB08F38B420CFA8E
S31500004F4002FC09D911EB0E0108F1FF3930D28B4270
S31500004F502ED9A8F102087144C91A80B2B1FBF5F343
S31500004F6005FB131140EA014107FB03F78F4208D9FD
S31500004F7011EB0E0103F1FF3016D28F4214D9023B1A
S31500004F80714443EA0843C91BA3FB0C89494509D36D
S31500004F9005D000221DE79646FEE6134611E794402B
S31500004FA04445F6D2013BF4E70346EAE78846A5E71F
S31500004FB0C846D1E702468CE713460AE7023B57E7A5
S31500004FC0A8F102082F443FE72DE9F041002B44D118
S31500004FD08A42154604464FD9B2FA82F70E464FB1B9
S31500004FE0C7F12003B94020FA03F602FA07F50E438B
S31500004FF000FA07F44FEA154E230CB6FBFEF0AFB2EB
S315000050000EFB106143EA014307FB00F1994209D9FF
S315000050105B1900F1FF3280F0EC80994240F2E980A2
S3150000502002382B445A1AA4B2B2FBFEF30EFB13222B
S3150000503044EA024207FB03F7974208D9521903F1E3
S31500005040FF3180F0D880974240F2D580023B43EA98
S31500005050004000263146BDE8F0818B4247D8B3FABE
S3150000506083F6002E48D18B4202D3824200F2CD80D5
S3150000507001203146BDE8F08112B90125B5FBF2F5F4
S31500005080B5FA85F8B8F1000F77D14A1B4FEA154EED
S31500005090AFB20126B2FBFEF0230C0EFB102143EA51
S315000050A0014107FB00F38B4207D9491900F1FF3292
S315000050B002D28B4200F2BA801046C91AA4B2B1FBE2
S315000050C0FEF30EFB131144EA014407FB03F7A74264
S315000050D008D9641903F1FF3280F08F80A74240F2AD
S315000050E08C80023B43EA00403146BDE8F081002651
S315000050F030463146BDE8F081C6F1200422FA04F5B7
S31500005100B3402B4320FA04FC01FA06F721FA04F512
S315000051104FEA134E4CEA0707B5FBFEF8390C0EFBB7
S3150000512018551FFA83FC41EA05450CFB08F1A94214
S3150000513002FA06F204D9ED1808F1FF3467D3A04647
S315000051406D1ABFB2B5FBFEF40EFB145547EA0541D6
S315000051500CFB04FC8C4504D9C91804F1FF355CD35B
S315000051602C4644EA0844CCEB0101A4FB02239942F5
S3150000517048D344D0204600266CE7C8F1200401FA43
S3150000518008F305FA08F520FA04F7E1404FEA154E50
S315000051901F43B1FBFEF63A0C0EFB16111FFA85FCF7
S315000051A042EA01430CFB06F29A4200FA08F407D9D8
S315000051B05B1906F1FF3137D29A4235D9023E2B44AC
S315000051C09B1ABFB2B3FBFEF00EFB103347EA034354
S315000051D00CFB00F1994207D95B1900F1FF3221D28D
S315000051E099421FD902382B445A1A40EA06466746A6
S315000051F050E7104616E70B4629E7134672E7B0401C
S315000052009042B7D2601E002624E7304622E7A94224
S3150000521095D9A8F102081D4492E78C45A0D9023C15
S3150000522019449EE71046DFE70E46C9E702382944CF
S3150000523043E700BF02440346934202D003F8011B32
S31500005240FAE770474275696C742077697468205272
S31500005250656E657361732053796E65726779202870
S31500005260544D2920536F66747761726520506163CF
S315000052706B6167652076657273696F6E20312E36B5
S315000052802E302B6275696C642E3731656531626329
S315000052903638383436000000312E362E3000000005
S315000052A000000601F8B500BFF8BC08BC9E46704772
S315000052B0F8B500BFF8BC08BC9E4670470D0C000050
S315000052C02D0B0000850C000005090000AD0700004D
S315000052D03D080000D50A000015070000B1080000CF
S315000052E0090A000085070000050800005D070000A8
S315000052F0D109000099080000020403040404FFFF1A
S31500005300FD110000550D00007D0D00008910000004
S31500005310A50D0000D510000059110000C90D0000B0
S31500005320F10F0000510E00000B01040100010307FC
S315000053300F1F3F7F00010102010202030102020367
S31500005340020303040102020302030304020303042B
S315000053500304040501020203020303040203030417
S3150000536003040405020303040304040503040405FB
S3150000537004050506010202030203030402030304F3
S3150000538003040405020303040304040503040405DB
S3150000539004050506020303040304040503040405C7
S315000053A004050506030404050405050604050506AB
S315000053B005060607D1170000F916000021170000A0
S315000053C08D18000051170000BD17000006010301EB
S315000053D0651B0000351B0000D11A0000E51A00000D
S315000053E0F91A00000D1B0000211B00000301020139
S315000053F0010002000400FFFF81230000B92C000019
S315000054007527000069240000A52C0000E51B00009C
S31500005410AD1F00006D250000E5200000C11D000045
S31500005420291E0000591E0000811E000031220000C6
S31500005430A91E0000D11E00003D1C0000411C0000FA
S31500005440451C0000491C00004D1C0000511C0000BA
S31500005450F91E0000211F0000491F00006520000002
S31500005460551C0000010002000300FFFF00000100C0
S315000054700200FFFF0D010301000001000000020011
S315000054806D36000059320000552E00009D2E00009A
S31500005490D12E0000F92E0000592F0000992F000090
S315000054A00D2E0000092E000055310000F92F0000D6
S315000054B0F52D000009010A0140420F00000000001E
S315000054C040420F000000000004000000020000003F
S315000054D0002D310100366E0130040201020A1E0061
S315000054E0D0FE010002000310040000001C000000B2
S315000054F013000000030E0010FFFFFFFFFFFFFFFF7A
S31500005500FFFFFFFFFFFFFFFF523746533747323794
S3150000551048334130314346435753313434314131B6
S31500005520303000000000000002B06400F00000000F
S3150000553001000810F3E0BFB6057933498B43F24FFB
S315000055401693A05D1E7A1DD8700D7A8242786A5E27
S31500005550C35C0B190400501100000040FFFF000857
S31500005560FFC110081FFF1B057F0028073F002F06FD
S315000055703E8047804C806A0064806B0082005680C3
S315000055806E00BD80B08083006F005B80700072008B
S3150000559071007300740075008A8086808D80CF80CC
S315000055A076006C006D00B5807B007A007C00A080E0
S315000055B077007800790090809A80978084009D809B
S315000055C0A3807D00D580D880A6808500AD80A98087
S315000055D0DE807E007F00800081000000060702104A
S315000055E000000000FFFF0000002000000001000096
S315000055F000000100FFFF3F000080000000010000E6
S315000056000607011000001040FFFF10404000000098
S31500005610040000000A000410070B0B0F0000FE1F19
S31500005620FFFFFF1F00000020FFFF032000000420F3
S31500005630FFFF072000E00F20FFFF0F2001070010EB
S3150000564008004000005000400803011000520040CE
S31500005650015F00100100000C00000040011F001057
S3150000566001000001000C00400003001001000001D1
S31500005670000D0040010700100100000100E07F401E
S31500005680000300100100100000C07F40E00103107D
S31500005690B0010310C00103102000031054000310D2
S315000056A030000F10700403100008071010000310DC
S315000056B0460403104105031040070310000C0310B5
S315000056C0400407104204031044040310D0050310DD
S315000056D0E0050B10F00503100F0707104009031033
S315000056E0000E0711400E0310600E03106000071035
S315000056F010040310B0070710800403100200001006
S31500005700030000010030054007030300000F0010EE
S315000057100A00200000000740000F001002000001F0
S3150000572000200740020000100E0000010080074024
S315000057303F1F1F1F0F0F0F0F070707070707000061
S315000057400003001001001000F08F07400003001056
S3150000575004000001002004400003001002000001C4
S3150000576000400840000700100600000100500840F5
S31500005770000700100200001000000540000700109E
S315000057800200000400200640020000100200000291
S315000057900040064007070000000700110200000154
S315000057A000E0044001030010C000040000080440AB
S315000057B008030110000D044004000210020000025C
S315000057C000C005402B2B00007F007F003F000F002C
S315000057D07F006F001F000F00040001100C00200066
S315000057E000000440070B0B0B0B0303030303030327
S315000057F0FFCFFFC7FFFFFFFFFF30FF30FFFFFFFFB9
S31500005800FFFFFFFFFFFFFF38FFFFFFFFFFFFFF0068
S31500005810FF3F7F00FFFFE301FFFF0307FF000300D9
S3150000582004000210010020000010084003000000E0
S31500005830FFFFFF0F0300000000030010010000023D
S31500005840000000640117001001000010000009406C
S31500005850001F0020010000020000064001030010A6
S315000058600100000100440640010300100100000190
